:020000040800F2
:10000000F097002055020008A5030008A10300088E
:10001000A3030008ED020008190500080000000015
:100020000000000000000000000000009D0100082A
:10003000EF02000800000000F10100089104000830
:100040006F0200086F0200086F0200086F020008CC
:100050006F0200086F0200086F0200086F020008BC
:100060006F0200086F0200086F0200086F020008AC
:100070006F0200086F0200086F0200086F0200089C
:100080006F0200086F0200086F0200086F0200088C
:100090006F0200086F0200086F0200086F0200087C
:1000A0006F0200086F0200086F0200086F0200086C
:1000B0006F0200086F0200086F0200086F0200085C
:1000C0006F0200086F0200086F0200086F0200084C
:1000D0006F0200086F0200086F0200086F0200083C
:1000E0006F0200086F0200086F0200086F0200082C
:1000F0006F0200086F0200086F0200086F0200081C
:100100006F0200086F0200086F0200086F0200080B
:100110006F0200086F0200086F0200086F020008FB
:100120006F0200086F0200086F0200086F020008EB
:100130006F0200086F0200086F0200086F020008DB
:100140006F0200086F0200086F0200086F020008CB
:100150006F0200086F0200086F0200086F020008BB
:100160006F0200086F0200086F0200086F020008AB
:100170006F0200086F0200086F0200086F0200089B
:100180006F0200086F020008DFF80CD000F09CF846
:100190000048004775080008F09700202A4B1968AE
:1001A0000868B0E8F04F80F30988BFF36F8F4FF015
:1001B000000080F3118870470000000006480068C6
:1001C000006880F3088862B661B6BFF34F8FBFF353
:1001D0006F8F00DF00BF00BF08ED00E0DFF80C000C
:1001E000016841F470010160704700BF88ED00E0D4
:1001F000EFF30980BFF36F8F134B1A681EF0100FD7
:1002000008BF20ED108A20E9F04F106008B44FF0CD
:10021000500080F31188BFF34F8FBFF36F8F01F051
:10022000F1FC4FF0000080F3118808BC19680868E1
:10023000B0E8F04F1EF0100F08BFB0EC108A80F34A
:100240000988BFF36F8F70471C000020EFF3058013
:10025000704700000648804706480047FEE7FEE773
:10026000FEE7FEE7FEE7FEE7FEE7FEE7FEE7FEE766
:10027000BD0400088901000840EA01039B0703D080
:1002800009E008C9121F08C0042AFAD203E011F8D5
:10029000013B00F8013B521EF9D2704730B50B46C6
:1002A000014600202022012409E021FA02F59D42A6
:1002B00005D303FA02F5491B04FA02F52844151E7A
:1002C000A2F10102F1DC30BD064C074D06E0E0680A
:1002D00040F0010394E8070098471034AC42F6D38D
:1002E000FFF756FF7028000890280008FEE77047C7
:1002F0002DE9F041002201274FF0030C07FA02F527
:100300000B682B40AB422CD1066853000CFA03F467
:10031000A64306600E79D0F800809E4046EA0806A3
:1003200006600E79012E01D0022E12D18668A643F6
:1003300086604E79D0F808809E4046EA08068660BE
:100340004668AE43466045688E799640B6B23543FE
:100350004560C568A543C560CC799C40C3681C4313
:10036000C460521C102AC9D3BDE8F08102460020A7
:1003700012690A4200D001207047024600205269EB
:100380000A4200D0012070470183704742694A4009
:1003900042617047002A01D0018370474183704752
:1003A000FEE7FEE770470000024908430249086083
:1003B000704700000000FA050CED00E0054A002936
:1003C00003D01168014311607047116881431160C7
:1003D00070470000303802400CB5002201920092B4
:1003E0002749086840F4803008604FF4A04308684B
:1003F00000F4003000900198401C0190009810B962
:1004000001989842F3D10868800302D5012000903A
:1004100000E000920098012831D11948403002686C
:1004200042F0805202601748026842F44042026083
:100430001348083002680260026842F40042026019
:10044000026842F4A0520260021F0F4B13600A6858
:1004500042F080720A600A689201FCD50B4A40F2B1
:1004600005711160016821F003010160016841F02C
:10047000020101600168C1F381010229FAD10CBDBA
:10048000003802400070004008544007003C024021
:1004900010B5502080F31188BFF34F8FBFF36F8FDB
:1004A00001F0B6FF18B104494FF0805008600020F9
:1004B00080F3118810BD000004ED00E010B5124873
:1004C000016841F4700101601048016841F00101C8
:1004D00001600E4A00210832116002680C4B1A407C
:1004E0000260031D0B4A1A60026822F48022026037
:1004F00006480C300160FFF76FFF03494FF00060C2
:100500008039086010BD000088ED00E0003802402E
:10051000FFFFF6FE10300024FEE700000FB4054B8D
:1005200010B503A9044A029800F018F810BC5DF851
:1005300014FB0000A90700089000002002E008C892
:10054000121F08C1002AFAD170477047002001E04D
:1005500001C1121F002AFBD1704700002DE9FF4F97
:100560008BB09A460F460546002606E025280BD09C
:1005700052460D9990476D1C761C28780028F5D1BD
:100580000FB03046BDE8F08F0024A046012260493C
:1005900000E0044315F8013F203B02FA03F0084253
:1005A000F7D128782E2817D115F8010F44F004044C
:1005B0002A280ED06FF02F022878A0F130010929E7
:1005C0000AD808EB880102EB410100EB01086D1C21
:1005D000F2E757F8048B6D1C287869283ED006DCBA
:1005E0000028CDD063280BD0642804D136E07328CE
:1005F00010D075284BD052460D999047761C85E057
:1006000017F8040B8DF8000000208DF80100E94672
:10061000012003E057F8049B4FF0FF3061074FF0D3
:10062000000401D40AE0641C44450DDA8442FADB7C
:1006300019F804100029F6D106E0641C8442FCDBA2
:1006400019F804100029F8D1264404E019F8010B28
:1006500052460D999047641EF8D257E001CF4FF0F3
:100660000A0B002802DA40422D2102E0210504D5C0
:100670002B218DF82410012103E0E10705D0202172
:10068000F7E70DF1200908910CE00021F9E701CF0F
:100690004FF00A0BF9E75946FFF700FE01F130026F
:1006A00009F8012D0028F6D1ADEB090000F1200B6F
:1006B000600701D44FF00108D84502DDA8EB0B001C
:1006C00000E000208046002406E009A85246005DB4
:1006D0000D999047641C761C08988442F5DB04E071
:1006E000302052460D999047761CB8F10001A8F1D0
:1006F0000108F5DC05E019F8010B52460D99904709
:10070000761CBBF10001ABF1010BF4DC6D1C34E78E
:100710000928010070B50546002D05D140F2FB42C5
:1007200014A11BA0FFF7FAFE1D4E3068854201D1CF
:10073000002070BD00F09EFE6C6900F0D7FE706B6B
:10074000844202D0B06B844201D1022070BD1548B2
:10075000844205D1A86A08B1022070BD032070BD93
:1007600010481438844202D00CB1012070BD04201E
:1007700070BD00002E2E5C2E2E5C467265655254B4
:100780004F535C7372635C7461736B732E63000010
:100790004572726F723A25732C25640D0A000000B1
:1007A0001C000020B403002038B504468DF800007A
:1007B00069460320ABBE204638BD000010B51021AD
:1007C0000948FFF7D3FD50B1002401210748FFF786
:1007D000CDFD012805D000202044C0B210BD012469
:1007E000F3E70220F8E7000000100240000002409A
:1007F0001CB501211020FFF7E1FD1020009000241E
:100800008DF805408DF8044069460948FFF770FDF2
:1008100001210846FFF7D2FD012000908DF8054028
:1008200002208DF8040069460248FFF761FD1CBDF7
:1008300000100240000002401CB501211020FFF70B
:10084000BDFD6020009002208DF8050001208DF88C
:10085000040000218DF806108DF80700044C69464D
:100860002046FFF745FD60212046FFF78DFD1CBDAA
:10087000001002401CB5FFF721FE4FF44070FFF757
:1008800093FDFFF7D9FFFFF7B3FF13480121CDE92F
:1008900000100023802211A1134801F075FD0025EE
:1008A00002242B46802211A11348CDE9004501F016
:1008B0006BFD0023802211A11348CDE9004501F012
:1008C00063FD00220121052001F068FA0249486019
:1008D00001F0D6F8FEE70000140000204C4544204B
:1008E0005461736B00000000091700085541525411
:1008F000205461736B000000311700084B657920AC
:100900005461736B000000005D1700082DE9F04191
:1009100004460F46174EF5683068001D00F066FD6E
:1009200038B9306890F82C10012088403169814333
:100930003161601C07D137B13168BDE8F041091D54
:100940000D4800F08BBD2C4430684460AC4206D2A8
:100950003168B06B091DBDE8F04100F067BD31683A
:10096000706B091D00F062FDB06A844200D2B4626F
:10097000BDE8F0811C000020B403002070B50446DF
:1009800000F078FD1C4DA868401CA860286810B1D4
:10099000686938B10CE02C60A868012808D100F023
:1009A00091F905E02868E16AC06A884200D82C60A5
:1009B000686A401C6862E06A01212A69814011432B
:1009C00029610E4900EB800001EB8000211D00F041
:1009D00045FD00F08BFD686900280CD02868E16AAD
:1009E000C06A884207D206494FF080500860BFF3C2
:1009F0004F8FBFF36F8F70BD1C000020E4000020FC
:100A000004ED00E010B500F035FD0E4C2068A0B9F3
:100A10000D4800F0FDFC0C48143000F0F9FC0A48C9
:100A2000E06014302061002210210A2001F0B6F9A4
:100A3000206010B105A100F031FEBDE8104000F0CB
:100A400055BD000058000020C8030020546D7251AD
:100A50000000000070B5124E124D1CE001F0CAF803
:100A6000306820B1002401F0FDFDA4B901E00124AB
:100A7000F9E700F0FFFCF068C468201D00F0B6FC48
:100A8000A868401EA8606868401E686000F02EFDDF
:100A9000204600F054F868680028DFD170BD0000DF
:100AA000A00300201C00002030B40B46026C002A7A
:100AB0000CD0C1681144C1604468A14201D30168EF
:100AC000C160C16830BC1846FFF7D6BB30BC704768
:100AD0002DE9F041044617460026A56B226C002A3A
:100AE00010D0C7B1E068FFF7C7FBE168206C091AB6
:100AF000E1602268914202D26168081AE060022F28
:100B000016D017E02068A8B9606801F0FBFC064623
:100B1000002060600EE0A068FFF7AEFB216CA068CB
:100B20000844A0606168884204D32068A06001E0A6
:100B300005B16D1E6D1CA5633046BDE8F08110B592
:100B40000446206B00F006FD2046BDE8104000F092
:100B500001BD00000749CA681168002904D00021BE
:100B6000016019B1002070470121F9E7D0680068E1
:100B700070470000580000204FF410410F48420712
:100B800006D0C01D20F007000C49411AC1F51041E4
:100B90000B4A1060002353600144083921F007011B
:100BA000103A11604B600B600B1A436001604068A3
:100BB000906050604FF00040D0607047F00300201C
:100BC00088000020074E4FF08054074DFFF742FF8A
:100BD00030680128FAD92C60BFF34F8FBFF36F8FB5
:100BE000F4E70000E400002004ED00E010B5029CF2
:100BF000002909D02260E06321640121204601F030
:100C0000D7F90020A06410BD2460F4E72DE9F04777
:100C1000DDE908580A9C81460E469A46206B521E12
:100C200000EB820020F00707780705D040F22B3256
:100C300019A120A0FFF772FC00202218315C82F875
:100C40003410315C11B1401C1028F6D3002684F812
:100C50004360202D00D31F25E5626564A664201D36
:100C600000F0E1FB04F1180000F0DDFB2461C5F1A8
:100C70002000A0616462E66484F8506052464946F0
:100C8000384600F0A1FB2060B8F1000F01D0C8F891
:100C90000040BDE8F08700002E2E5C2E2E5C4672D0
:100CA000656552544F535C7372635C7461736B730C
:100CB0002E6300004572726F723A25732C25640D05
:100CC0000A00000070B50024114D04EB840005EB10
:100CD000800000F09DFB641C202CF6D30D4800F032
:100CE00097FB0C48143000F093FB0A48283000F0C2
:100CF0008FFB08483C3000F08BFB0648503000F07A
:100D000087FB0548034941631431816370BD0000CE
:100D1000E4000020640300201C00002030B51349CB
:100D200000E011460A688242FBD34B685C1884429B
:100D300003D140681844486008460D684468231889
:100D4000AB420DD1094B103B1B689A4206D052684A
:100D5000224442600A681268026002E0036000E018
:100D60000260814200D0086030BD00008800002091
:100D700070B50024416000610C4D91420AD8D11A2F
:100D80008269914201D301240EE0011D286900F01F
:100D90004DFB09E09A4203D2994201D3012403E0BA
:100DA000011DE86800F042FB204670BD580000209D
:100DB00010B5044600F05EFBA06B20B1002400F0EB
:100DC00095FB204610BD0124F9E710B5044600F05C
:100DD00051FBA06BE16B884201D1012400E00024AB
:100DE00000F084FB204610BD2DE9F3410F4600982A
:100DF000846C0026002C05D140F6CE1216A11DA051
:100E0000FFF78CFBA06BE16B884205D340F6CF1255
:100E100011A118A0FFF782FBA06BE16B88420CD2F6
:100E200094F945503A4669462046FFF751FE06467A
:100E3000681C05D06D1C84F845503046BDE8FC8127
:100E4000606A0028F9D004F1240001F0B9FB002801
:100E5000F3D00126F1E700002E2E5C2E2E5C4672A8
:100E6000656552544F535C7372635C71756575654B
:100E70002E6300004572726F723A25732C25640D43
:100E80000A000000F8B505460E461348C068C06861
:100E9000C468201D00F0AAFAE069012816D1A069F3
:100EA0002B46411932462046FFF762FF70B1002001
:100EB0000346014600902A46204601F089FC28B9E5
:100EC0004FF4027205A10CA0FFF728FB616A01B084
:100ED0002046BDE8F0400847580000202E2E5C2E2A
:100EE0002E5C4672656552544F535C7372635C743A
:100EF000696D6572732E63004572726F723A257365
:100F00002C25640D0A00000070B586B02F4E53E00A
:100F10000298002803DADDE903200599904702983A
:100F2000002849DB049C606910B1201D00F05EFAC6
:100F300001A800F0ABF8054602980A283CD2DFE889
:100F400000F00505053B273805053B270398A169F7
:100F5000034601442A462046FFF70AFF00282BD00B
:100F6000616A20468847E069012825D10020009069
:100F70000398A169002342181946204601F028FC75
:100F8000D0B940F2213212A118A0FFF7C7FA13E03E
:100F90000398A06128B94FF44E720DA113A0FFF77A
:100FA000BDFAA0692B4641192A462046FFF7E0FE0C
:100FB00002E0204600F0CEFA00231A4602A930686B
:100FC00000F022FF0028A3D106B070BD5800002019
:100FD0002E2E5C2E2E5C4672656552544F535C7308
:100FE00072635C74696D6572732E63004572726F13
:100FF000723A25732C25640D0A000000F8B50646E8
:101000000D4600F0F7FD684600F040F804460098F1
:1010100010B101F027FBF8BD45B9A64206D801F092
:1010200021FB21463046FFF72DFFF8BD0C481DB1CE
:101030000169096891B10025311B2A46006800F05A
:101040003FFB01F00FFB0028EFD106494FF0805025
:101050000860BFF34F8FBFF36F8FF8BD0125EBE73B
:101060005800002004ED00E00748416B09680029A2
:1010700005D0416BC968C9684968816270474FF003
:10108000FF318162704700001C00002070B50546EA
:1010900001F0B8F90446074EB068844204D200F06B
:1010A0000BF80120286001E000202860B460204691
:1010B00070BD000058000020F8B5184E25E0C0684B
:1010C0000568C468201D00F091F9616A20468847D0
:1010D000E069012819D1A0692844A84206D96060B6
:1010E0002461211DF06800F0A1F90EE00020034604
:1010F000014600902A46204601F06AFB28B940F2DA
:10110000923207A10DA0FFF709FAF06801680029E3
:10111000D5D1F0683169F1603061F8BD5800002028
:101120002E2E5C2E2E5C4672656552544F535C73B6
:1011300072635C74696D6572732E63004572726FC1
:10114000723A25732C25640D0A0000000848406897
:10115000401C05D040F20F1206A111A0FFF7DEF9E6
:10116000502080F31188BFF34F8FBFF36F8FFEE7DE
:101170006C0000202E2E5C2E2E5C4672656552544B
:101180004F535C706F72745C525644535C41524DC5
:101190005F434D34465C706F72742E630000000034
:1011A0004572726F723A25732C25640D0A00000097
:1011B00070B500250446002805D140F2816208A1DF
:1011C0000EA0FFF7ABF911496069884205D1A06A0A
:1011D0002839884201D000B90125284670BD000099
:1011E0002E2E5C2E2E5C4672656552544F535C73F6
:1011F00072635C7461736B732E6300004572726F6F
:10120000723A25732C25640D0A000000B4030020F7
:1012100008B56846FFF79EFC0099FFF7EFFEFFF761
:1012200073FEF6E72DE9F041044600F023F994F946
:10123000455004F1240613E0A06C38B1002120468B
:10124000FFF7D2FD50B100F0EFFA07E0606A48B155
:10125000304601F0B5F908B100F0E6FA6D1E6DB246
:10126000002DE9DC4FF0FF3684F8456000F03EF9D0
:1012700000F000F994F9445004F1100709E02069E6
:1012800048B1384601F09CF908B100F0CDFA6D1E66
:101290006DB2002DF3DC84F84460BDE8F04100F04D
:1012A00025B900002DE9F0410546002600F0A2FC1A
:1012B000304F386808B9FFF75FFCF86805424BD13A
:1012C00075B1083568070BD005F00700C0F10800BC
:1012D0000544680704D0BF2227A131A0FFF71EF9FB
:1012E000002D39D07868854236D822491031084619
:1012F000046801E0214604466068A84202D22068E2
:101300000028F7D13868844226D00E680836206855
:1013100008606068401B102811D904EB05085FEADB
:10132000487004D0EC2214A11DA0FFF7F7F8606804
:10133000401BC8F8040065604046FFF7EFFC616899
:101340007868401A7860BA68904200D2B860F8684D
:10135000014361600020206001F084F9700705D02E
:101360004FF4967204A10EA0FFF7D8F83046BDE8FE
:10137000F0810000780000202E2E5C2E2E5C46723C
:10138000656552544F535C706F72745C4D656D4D62
:10139000616E675C686561705F342E6300000000F9
:1013A0004572726F723A25732C25640D0A00000095
:1013B00004490868002803D00868826C521C8264C3
:1013C000086870471C00002024384FF080730362C7
:1013D00021F00101C1610449816142606FF00201A5
:1013E00040F82019704700004D1100080169D0E94C
:1013F00001329A60D0E901235A604A68824201D1E1
:1014000082684A60002202610868401E08607047D6
:1014100000F1080141604FF0FF328260C16001615C
:1014200000210160704700210161704730B50C68F0
:10143000621C02D000F1080202E0026904E01A46D0
:1014400053681D68A542FAD953684B6099608A6059
:10145000516008610168491C016030BD42684A6002
:1014600093688B6093685960916008610168491CBA
:1014700001607047502080F31188BFF34F8FBFF396
:101480006F8F09494868401C486001280AD1074805
:10149000006810F0FF0F05D040F2B91204A10FA0B0
:1014A000FFF73CB8704700006C00002004ED00E03E
:1014B0002E2E5C2E2E5C4672656552544F535C7026
:1014C0006F72745C525644535C41524D5F434D34CD
:1014D000465C706F72742E63000000004572726F7C
:1014E000723A25732C25640D0A00000010B5094CD2
:1014F0006068002805D14FF4E07207A111A0FFF742
:101500000DF86068401E6060002801D180F31188EA
:1015100010BD00006C0000202E2E5C2E2E5C46724A
:10152000656552544F535C706F72745C52564453ED
:101530005C41524D5F434D34465C706F72742E6354
:10154000000000004572726F723A25732C25640DFD
:101550000A00000070B500282AD008380446154D4E
:101560006068E968084205D14FF4A07212A11CA07E
:10157000FEF7D4FF206828B140F241120EA118A056
:10158000FEF7CCFF6068E968084211D02268002AA3
:101590000ED18843606000F02DFB606869680844E4
:1015A00068602046FFF7BAFBBDE8704001F05AB80A
:1015B00070BD0000780000202E2E5C2E2E5C46723E
:1015C000656552544F535C706F72745C4D656D4D20
:1015D000616E675C686561705F342E6300000000B7
:1015E0004572726F723A25732C25640D0A00000053
:1015F00006484FF47A710068B0FBF1F14FF0E0203B
:10160000491E416107210161704700000000002070
:1016100010B5FEF71BFE104C10280CD300F1E02093
:1016200090F8F0032178884205D24FF440720BA164
:1016300015A0FEF773FF18480068A16800F4E06089
:10164000884207D9BDE810404FF4447203A10EA0B0
:10165000FEF764BF10BD00006C0000202E2E5C2E33
:101660002E5C4672656552544F535C706F72745CA9
:10167000525644535C41524D5F434D34465C706F4B
:1016800072742E63000000004572726F723A257307
:101690002C25640D0A0000000CED00E010B50022BE
:1016A000064B53F832401CB1521C0A2AF9D310BD24
:1016B00043F8321003EBC201486010BD94000020D3
:1016C00070B504460D461646FFF7D4FE94F9443033
:1016D0004FF000005B1C01D184F8440094F94510E0
:1016E000491C01D184F84500FFF700FFA06B28B921
:1016F0003246294604F1240000F0CCF82046BDE82B
:101700007040FFF78FBD0000084C4FF47A75202120
:101710002046FEF732FEC0F10100C2B22021204671
:10172000FEF738FE284600F043F8F0E700100240CC
:1017300008B500200090074C074E451E00232A469E
:101740006946606800F060FB40213046FEF71EFEEF
:10175000F4E70000140000200010024008B500204B
:1017600000900024114E2546FFF728F8044624EA8D
:101770000500009084EA0507A74328B100231A4614
:101780006946706800F06EFC022F07D13068FEF7E2
:10179000C1FF032806D0306800F0C0F90A2000F02D
:1017A00007F8E0E7306800F0EDF8F7E714000020F4
:1017B00010B504460020002C10D00E48006B28B154
:1017C00040F2CF420CA113A0FEF7A8FE00F012FADF
:1017D00000212046FFF79AF800F044FF002807D1C7
:1017E00010494FF080500860BFF34F8FBFF36F8FE9
:1017F00010BD00001C0000202E2E5C2E2E5C4672B8
:10180000656552544F535C7372635C7461736B73A0
:101810002E6300004572726F723A25732C25640D99
:101820000A00000004ED00E001490120C861704792
:101830001C00002070B504460D46002C05D140F672
:10184000063208A10EA0FEF769FE11480168204685
:101850001831FFF7EBFD2846BDE870400121FFF786
:1018600055B800002E2E5C2E2E5C467265655254D3
:101870004F535C7372635C7461736B732E6300000F
:101880004572726F723A25732C25640D0A000000B0
:101890001C00002070B506460D461446002E05D1EA
:1018A00040F6313209A110A0FEF738FE1248016857
:1018B00030461831FFF7D2FD0CB14FF0FF3521460D
:1018C0002846BDE87040FFF721B800002E2E5C2EA0
:1018D0002E5C4672656552544F535C7372635C7440
:1018E00061736B732E6300004572726F723A2573D9
:1018F0002C25640D0A0000001C00002070B5044671
:10190000002839D01D4DE06A2968C96A884233D25F
:10191000A069002804DB2868C06AC0F12000A0612B
:10192000E06A174E00EB8000616906EB800081429F
:101930001FD1201DFFF75AFD012150B9E06A00EBCD
:10194000800256F8222022B92A6901FA00F0824367
:101950002A612868C06AE0622A69814011432961CE
:1019600000EB800006EB8000211DBDE87040FFF712
:1019700075BD2868C06AE06270BD00001C000020D0
:10198000E400002070B50446002805D140F2AB62A7
:1019900019A120A0FEF7C2FD002C2BD0214D2868F4
:1019A000844227D0FFF766FD2046FFF701FCE8B12F
:1019B000201DFFF71BFDE06A01212A6981401143C8
:1019C0002961194900EB800001EB8000211DFFF720
:1019D00045FDE06A2968C96A884207D313494FF078
:1019E00080500860BFF34F8FBFF36F8FBDE870402A
:1019F000FFF77CBD70BD00002E2E5C2E2E5C467263
:101A0000656552544F535C7372635C7461736B739E
:101A10002E6300004572726F723A25732C25640D97
:101A20000A0000001C000020E400002004ED00E09B
:101A300010B50446002C05D140F6C13204A10BA01C
:101A4000FEF76CFD0D48016A2160C068606010BD42
:101A50002E2E5C2E2E5C4672656552544F535C737D
:101A600072635C7461736B732E6300004572726FF6
:101A7000723A25732C25640D0A0000001C0000201A
:101A80001CB517480024CDE900402346802215A14B
:101A9000164800F079FC012801D100F05DFE012814
:101AA0000AD0401C1BD102B040F28472BDE8104045
:101AB0000FA116A0FEF732BD502080F31188BFF3AE
:101AC0004F8FBFF36F8F06484FF0FF312C38816284
:101AD00001214161C460BDE81C4000F0D7B81CBDC5
:101AE0004800002049444C4500000000C50B000898
:101AF0002E2E5C2E2E5C4672656552544F535C73DD
:101B000072635C7461736B732E6300004572726F55
:101B1000723A25732C25640D0A00000070B5044646
:101B2000FFF7A8FC244D04B92C68201DFFF75EFCCC
:101B300058B9E06A214A00EB800152F8211021B91E
:101B400001218140286988432861A06A18B104F105
:101B50001800FFF74BFC211D1948FFF77FFCFFF72A
:101B6000C5FC686928B1FFF785FCFFF77DFAFFF730
:101B7000BDFC2868844211D1686980B1286B28B106
:101B800040F257620FA116A0FEF7C8FC18494FF0AB
:101B900080500860BFF34F8FBFF36F8F70BD084850
:101BA000A9680068884202D10020286070BDBDE8A5
:101BB000704000F027B800001C000020E400002066
:101BC000B40300202E2E5C2E2E5C467265655254A6
:101BD0004F535C7372635C7461736B732E630000AC
:101BE0004572726F723A25732C25640D0A0000004D
:101BF00004ED00E00248016B491C016370470000DE
:101C00001C00002070B5144D286B002802D0012064
:101C1000E86170BD0020E8612869B0FA80F0C0F189
:101C20001F000E4E00EB800456F8240028B940F641
:101C3000F6220BA111A0FEF771FC06EB84004168AF
:101C40004968416000F10802914201D14968416050
:101C50004068C068286070BD1C000020E4000020BF
:101C60002E2E5C2E2E5C4672656552544F535C736B
:101C700072635C7461736B732E6300004572726FE4
:101C8000723A25732C25640D0A0000001CB52F4CF8
:101C900020682F49884205D140F259122DA138A061
:101CA000FEF73CFC20682A49491E884205D14FF4C2
:101CB000AD7228A132A0FEF731FC354C207801909E
:101CC000FF202070207800909DF800009DF8001003
:101CD00000F0F000884205D040F273121DA128A048
:101CE000FEF71CFC9DF800002A4A00F0500010701E
:101CF0000720906006E09068401E90609DF800000C
:101D0000400000909DF800000006F4D4107A000214
:101D100000F4E0609060019820700C482030016869
:101D200041F470010160016841F070410160FFF70A
:101D30005FFC00205060FEF751FA1748016841F03F
:101D400040410160FEF73AFA00201CBD00ED00E0C2
:101D500071C20F412E2E5C2E2E5C46726565525468
:101D60004F535C706F72745C525644535C41524DD9
:101D70005F434D34465C706F72742E630000000048
:101D80004572726F723A25732C25640D0A000000AB
:101D900000E400E06C00002034EF00E0F8B50546F8
:101DA0000E461746002D05D14FF4C4720BA112A0A8
:101DB000FEF7B4FB86B105FB06F04C30FFF772FA74
:101DC00004463CB104F14C023B463146284600949F
:101DD000FEF70CFF2046F8BD0020EEE72E2E5C2E0D
:101DE0002E5C4672656552544F535C7372635C712E
:101DF000756575652E6300004572726F723A2573C2
:101E00002C25640D0A0000002DE9FF4F83B0044625
:101E10008A469B460026002C05D140F2DC4258A1A0
:101E20005EA0FEF77BFBBAF1000F07D1206C28B152
:101E300040F2DD4252A159A0FEF770FB00F0D4FA47
:101E400038B9059828B14FF49C624DA153A0FEF714
:101E500065FB4FF000094FF08057DFF85081FFF726
:101E600009FBA56B95B3E66851462046FEF71CFEBC
:101E7000BBF1000F13D0E660606A50B104F124009A
:101E800000F09EFB28B1C8F80070BFF34F8FBFF37E
:101E90006F8FFFF72BFB012007B0BDE8F08F6D1EA1
:101EA000A563206810B9FFF783FA606020690028F5
:101EB000EFD004F1100000F083FB0028E9D0C8F84F
:101EC0000070BFF34F8FBFF36F8FE2E7FFE7059816
:101ED00008B126B107E0FFF709FB0020DCE701A805
:101EE000FFF7A6FD0126FFF701FBFFF783FEFFF7D3
:101EF000C1FA94F94400401C01D184F8449094F94B
:101F00004500401C01D184F84590FFF7EFFA05A980
:101F100001A800F0EDF958B12046FFF783F900F071
:101F2000A1FB2046FEF744FF002898D00020B3E72D
:101F30002046FEF73DFFE0B1206830B9FFF79AFA7E
:101F40006068FFF7DBFCFFF7D1FA04F12400059984
:101F5000FFF770FC2046FFF765F900F083FB0028CF
:101F60007FF47DAFC8F80070BFF34F8FBFF36F8F62
:101F700075E72046FFF756F900F074FB6FE70000A5
:101F80002E2E5C2E2E5C4672656552544F535C7348
:101F900072635C71756575652E6300004572726FC2
:101FA000723A25732C25640D0A00000004ED00E050
:101FB00070B504460D46002C05D140F21B121DA140
:101FC00023A0FEF7ABFAFFF755FAD4E90F202168FA
:101FD00002FB001161600021A1632168A160E06B38
:101FE0002268216C401E00FB0121E1604FF0FF30B0
:101FF00084F8440084F8450004F110004DB1FFF767
:1020000007FA04F12400FFF703FAFFF76FFA012043
:1020100070BD21690029F8D000F0D2FA0028F4D070
:102020000F494FF080500860BFF34F8FBFF36F8FA1
:10203000EBE700002E2E5C2E2E5C46726565525436
:102040004F535C7372635C71756575652E63000038
:102050004572726F723A25732C25640D0A000000D8
:1020600004ED00E02DE9FF4782B004468A46984619
:102070000025002C05D140F2D92254A15AA0FEF728
:102080004DFABAF1000F07D1206C28B140F2DA22E4
:102090004EA155A0FEF742FAB8F1020F08D1E06B4D
:1020A000012805D040F2DB2248A14FA0FEF736FA06
:1020B00000F09AF938B9049828B140F2DE2243A121
:1020C00049A0FEF72BFA4FF000094FF080564A4F17
:1020D000FFF7D0F9A06BE16B884206D3B8F1020F8D
:1020E00003D0049860B37DB333E0424651462046A6
:1020F000FEF7EEFCA16C51B141462046FEF774FE9E
:10210000C0B13E60BFF34F8FBFF36F8F12E0616AC3
:1021100051B104F1240000F053FA58B13E60BFF30E
:102120004F8FBFF36F8F05E020B13E60BFF34F8F3D
:10213000BFF36F8FFFF7DAF9012006B0BDE8F08733
:10214000FFF7D4F90020F8E7FFE76846FFF770FCD7
:102150000125FFF7CBF9FFF74DFDFFF78BF994F958
:102160004400401C01D184F8449094F94500401C7F
:1021700001D184F84590FFF7B9F904A9684600F049
:10218000B7F830B12046FFF74DF800F06BFA0020A9
:10219000D3E72046FEF719FE88B104F11000049938
:1021A000FFF748FB2046FFF73DF800F05BFA0028F8
:1021B0008ED13E60BFF34F8FBFF36F8F88E720460D
:1021C000FFF730F800F04EFA82E700002E2E5C2E6A
:1021D0002E5C4672656552544F535C7372635C713A
:1021E000756575652E6300004572726F723A2573CE
:1021F0002C25640D0A00000004ED00E02DE9F047F5
:102200000446894615469846002C05D140F29F3277
:102210002CA133A0FEF782F9B9F1000F07D1206C91
:1022200028B14FF4687227A12DA0FEF777F9B8F115
:10223000020F08D1E06B012805D040F2A13221A1A4
:1022400027A0FEF76BF9FFF7E3F95020EFF31187B2
:1022500080F31188BFF34F8FBFF36F8FA06BE16BDB
:10226000884207D3B8F1020F04D0002087F3118809
:10227000BDE8F08794F94560424649462046FEF79E
:1022800027FC701C04D0761C84F845600120EDE723
:10229000A06C012648B141462046FEF7A5FD002866
:1022A000F4D0002DF2D02E60F0E7606A0028EDD067
:1022B00004F1240000F084F90028E7D0002DE5D0D7
:1022C0002E60E3E72E2E5C2E2E5C4672656552541E
:1022D0004F535C7372635C71756575652E630000A6
:1022E0004572726F723A25732C25640D0A00000046
:1022F00070B504460D46002C05D140F6CB3216A130
:102300001CA0FEF70BF92DB940F6CC3212A119A092
:10231000FEF704F9FFF7AEF81A4AD06829684B1C9B
:1023200008D02368126A934206D06268824203D8BA
:1023300001240DE000240BE06268801A884206D276
:10234000081A28602046FFF773FB002400E00124F0
:10235000FFF7CCF8204670BD2E2E5C2E2E5C467208
:10236000656552544F535C7372635C7461736B7335
:102370002E6300004572726F723A25732C25640D2E
:102380000A0000001C0000202DE9FF5F8146DDE906
:102390000E788A4616469B46B000FEF783FF054638
:1023A00028000AD05420FEF77DFF04460CB12563B7
:1023B00004E02846FFF7CEF800E000248CB10020AE
:1023C000CDE90240CDE900785B46324651464846A9
:1023D000FEF71CFC2046FEF7D1FA012004B0BDE850
:1023E000F09F4FF0FF30F9E705484169002903D01D
:1023F000006B18B100207047012070470220704721
:102400001C0000200148C068704700001C0000202C
:102410002DE9F04100262E4F386B002808D0B8690E
:10242000401CB861F86900B101263046BDE8F08172
:10243000FD686D1CFD608DB9786B006828B140F6B1
:10244000D91224A12AA0FEF769F8786BB96B7963D9
:10245000B863386A401C3862FEF706FEB86ADFF8D7
:10246000A08085420DD3786B006838B1786BC06866
:10247000C468606885420ED2B86202E04FF0FF3057
:10248000B8623868C06A00EB800058F82000012864
:10249000C8D90126C6E7201DFEF7A8FFA06A18B11B
:1024A00004F11800FEF7A2FFE06A01213A698140B9
:1024B0001143396100EB800008EB8000211DFEF71D
:1024C000CDFFE06A3968C96A8842CCD30126CAE7E1
:1024D0001C0000202E2E5C2E2E5C46726565525428
:1024E0004F535C7372635C7461736B732E63000093
:1024F0004572726F723A25732C25640D0A00000034
:10250000E400002070B50446002600283CD01F4D92
:102510002868844205D040F6C7621DA123A0FDF7BC
:10252000FDFFA06C28B940F6C96219A11FA0FDF7F4
:10253000F5FFA06C401EA064626CE16A914223D05A
:1025400010BB201DFEF752FF1C4A012150B9E06A62
:1025500000EB800352F8233023B92B6901FA00F015
:1025600083432B61606CE062C0F12000A061E06AEF
:102570002B6981401943296100EB800002EB800048
:10258000211DFEF76BFF0126304670BD1C000020A8
:102590002E2E5C2E2E5C4672656552544F535C7332
:1025A00072635C7461736B732E6300004572726FAB
:1025B000723A25732C25640D0A000000E400002007
:1025C0002DE9F041C068C468002C05D140F66132A5
:1025D00016A11DA0FDF7A2FF04F118000746FEF7A3
:1025E00005FF1D4D2A6B012662B139461B48FEF7D7
:1025F00035FFE06A2968C96A884215D90120EE6171
:10260000BDE8F081201DFEF7F1FEE06A2A6906FAB6
:1026100000F111432961124900EB800001EB8000B9
:10262000211DFEF71BFFE4E70020E9E72E2E5C2EBC
:102630002E5C4672656552544F535C7372635C74D2
:1026400061736B732E6300004572726F723A25736B
:102650002C25640D0A0000001C0000208C030020C3
:10266000E40000202DE9F041002400272B4D286BC9
:10267000002805D14FF4FD6229A130A0FDF74EFFDF
:10268000FEF7F8FE286B401E2863286BF0BBA86895
:10269000E0B3DFF8B88001261DE0D8F80C00C4686C
:1026A00004F11800FEF7A2FE201DFEF79FFEE06A6F
:1026B0002A6906FA00F111432961254900EB8000DF
:1026C00001EB8000211DFEF7C9FEE06A2968C96A96
:1026D000884200D3EE61D8F800000028DDD10CB1AB
:1026E000FEF7C2FCAC6944B1FFF792FE00B1EE61A7
:1026F000641E002CF8D10020A861E86930B10127E0
:10270000144938070860BFF34F8F00E001E0BFF3C2
:102710006F8FFEF7EBFE3846BDE8F0811C0000200D
:102720002E2E5C2E2E5C4672656552544F535C73A0
:1027300072635C7461736B732E6300004572726F19
:10274000723A25732C25640D0A0000008C030020CA
:10275000E400002004ED00E01CB50024FEF752F96F
:102760000C48006860B10B481F21001DCDE9001026
:1027700000234FF4807208A10948FFF705FE0446C4
:102780002CB940F2331207A10DA0FDF7C7FE204679
:102790001CBD000058000020546D72205376630069
:1027A000111200082E2E5C2E2E5C46726565525466
:1027B0004F535C7372635C74696D6572732E630052
:1027C0004572726F723A25732C25640D0A00000061
:1027D0002DE9FF47DDF830A005460E4690469946A4
:1027E0000027002D05D14FF4D37215A11BA0FDF7D2
:1027F00095FE1E4C2068F8B10096CDF80480029535
:10280000062E13DAFFF7F0FD022807D000231A4640
:1028100069462068FFF726FC07460DE00023524674
:1028200069462068FFF71EFC074605E000234A467C
:102830006946FFF7E3FC074604B03846BDE8F08779
:102840002E2E5C2E2E5C4672656552544F535C737F
:1028500072635C74696D6572732E63004572726F8A
:10286000723A25732C25640D0A00000058000020E0
:102870009028000800000020940000003C0500089B
:1028800024290008940000205C9700004C050008F3
:10289000007A030A000000000000000001020304A7
:1028A000060708090000000000000000000000000A
:1028B0000000000000000000000000000000000018
:1028C0000000000000000000000000000000000008
:1028D00000000000000000000000000000000000F8
:1028E00000000000000000000000000000000000E8
:1028F00000000000000000000000000000000000D8
:10290000AAAAAAAA0000000000000000000000001F
:1029100000000000000000000000000000000000B7
:0429200000000000B3
:040000050800018965
:00000001FF
