:020000040800F2
:100000009098002055020008DF080008DB0800086F
:10001000DD08000821080008FD10000800000000AD
:100020000000000000000000000000009D0100082A
:100030002308000800000000F1010008050D000879
:100040006F0200086F0200086F0200086F020008CC
:100050006F0200086F0200086F0200086F020008BC
:100060006F0200086F0200086F0200086F020008AC
:100070006F0200086F0200086F0200086F0200089C
:100080006F0200086F0200086F0200086F0200088C
:100090006F0200086F0200086F0200086F0200087C
:1000A0006F0200086F0200086F0200086F0200086C
:1000B0008D0D00086F0200086F0200086F02000833
:1000C0006F0200086F0200086F0200086F0200084C
:1000D0006F020008810E00086F0200086F0200081E
:1000E0006F0200086F0200086F0200086F0200082C
:1000F0006F0200086F0200086F0200086F0200081C
:100100006F0200086F0200086F0200086F0200080B
:100110006F0200086F0200086F0200086F020008FB
:100120006F0200086F0200086F0200086F020008EB
:100130006F0200086F0200086F0200086F020008DB
:100140006F0200086F0200086F0200086F020008CB
:100150006F0200086F0200086F0200086F020008BB
:100160006F0200086F0200086F0200086F020008AB
:100170006F0200086F0200086F0200086F0200089B
:100180006F0200086F020008DFF80CD000F0A8FA38
:1001900000480047751D0008909800202A4B1968F8
:1001A0000868B0E8F04F80F30988BFF36F8F4FF015
:1001B000000080F3118870470000000006480068C6
:1001C000006880F3088862B661B6BFF34F8FBFF353
:1001D0006F8F00DF00BF00BF08ED00E0DFF80C000C
:1001E000016841F470010160704700BF88ED00E0D4
:1001F000EFF30980BFF36F8F134B1A681EF0100FD7
:1002000008BF20ED108A20E9F04F106008B44FF0CD
:10021000500080F31188BFF34F8FBFF36F8F03F04F
:10022000ABFA4FF0000080F3118808BC1968086829
:10023000B0E8F04F1EF0100F08BFB0EC108A80F34A
:100240000988BFF36F8F704748000020EFF30580E7
:10025000704700000648804706480047FEE7FEE773
:10026000FEE7FEE7FEE7FEE7FEE7FEE7FEE7FEE766
:10027000310D00088901000840EA01039B0703D003
:1002800009E008C9121F08C0042AFAD203E011F8D5
:10029000013B00F8013B521EF9D27047D2B201E097
:1002A00000F8012B491EFBD270470022F6E710B57B
:1002B00013460A4604461946FFF7F0FF204610BDD4
:1002C000421C10F8011B0029FBD1801A704703461D
:1002D00011F8012B00F8012B002AF9D118467047BC
:1002E00030B50B46014600202022012409E021FA06
:1002F00002F59D4205D303FA02F5491B04FA02F503
:100300002844151EA2F10102F1DC30BD2DE9F05F99
:100310000546002092469B46884606468146402474
:100320001BE0284641464746224600F0FAF953466C
:100330005A46C01A914110D311461846224600F081
:10034000E1F92D1A67EB01084F46224601200021F2
:1003500000F0D8F917EB00094E41201EA4F101046A
:10036000DFDC484631462A464346BDE8F09F2DE98A
:10037000FE4F804681EA0300C00F0C46009021F03A
:10038000004123F00045B8EB0200A94105D24046E8
:10039000214690461C460B46024623F0004010437F
:1003A00047D0270DC7F30A00C3F30A510290401A41
:1003B000019040286BDAC3F3130040F4801B0098CF
:1003C000924620B10023D2EB030A63EB0B0B01989A
:1003D0005946C0F14002504600F094F906460D46D9
:1003E00050465946019A00F0ACF910EB0800614103
:1003F000002487EA115284EAE7731A4340D0009A36
:1004000062B3019A012A4FEA075215DC001B61EB27
:1004100002014FF0004202EA0752CDE90042001CFF
:1004200041F5801132462B4600F0ACF903B0BDE82F
:10043000F08F40462146F9E7001B61EB0201001CEA
:1004400041F5801300185B412018A2F5001747EB17
:10045000030140EAD570B6196D4111E06D084FEA0D
:10046000360645EAC0754FEA0752001B61EB0201F0
:10047000001C41F5801149084FEA30000019514134
:1004800032462B4603B0BDE8F04F00F06CB900983F
:10049000012240000023D0EB020263EBE0730098DE
:1004A00021464FEAE074B8EB000061EB0401E9E794
:1004B00083F000435BE781F0004158E72DE9FE4FF0
:1004C00081EA030404F0004421F0004100944FF05D
:1004D000000B23F0004350EA01045ED052EA03040B
:1004E0005BD0C3F30A54C1F30A552C44A4F2F3348D
:1004F0000194A0FB0254C1F3130141F48011C3F332
:10050000130343F4801301FB024400FB034E840AEF
:10051000970A44EA815447EA8357A4FB0768029587
:100520008D0A05FB07854FEA932C04FB0C54270525
:10053000029D4FEA065847EA1637B5EB08056EEB01
:10054000070C870E920E47EA811742EA8312A7FB37
:100550000201B6EB0B0164EB00042B0D43EA0C33F4
:100560005E1844EB1C50DA465146E7FB0201C5F326
:1005700013044FEA0B3343EA14534FEA0432019C4D
:1005800043EA0603A4F10C040294009CCDE900B4F4
:1005900000F0F8F803B0BDE8F08F00200146F9E75D
:1005A0002DE9F04D81EA030404F0004B21F00045F1
:1005B00014464FF0000A23F0004150EA050220D013
:1005C00054EA01021DD0C5F30A570246C5F31303CE
:1005D000C1F31300C1F30A5640F4801543F48013AD
:1005E000A7EB0608101BD64608F2FD3873EB050092
:1005F00002D308F1010801E092185B41B8F1000F45
:1006000003DA00200146BDE8F08D00204FF4801190
:10061000064684460EE0171B73EB050705D3121B35
:1006200063EB050306434CEA010C49084FEA30002E
:1006300092185B4150EA0107EDD152EA030012D053
:1006400082EA040083EA0501084305D0101BAB4190
:1006500006D20122002306E000224FF0004302E010
:100660006FF0010253101AEB06004CEB085110EB2F
:100670000A0041EB0B01BDE8F04D00F074B8C1F386
:100680000A52C1F3130140F2FF3341F480119A4240
:1006900002DA00200146704740F233439A42A2F248
:1006A000334202DC524200F03CB800F02BB80000AC
:1006B00030B5041E71F1000404DB4FF000444042E9
:1006C00064EB0101141E73F1000405DB1C464FF0BE
:1006D0000043524263EB0403994208BF904230BD8D
:1006E000064C074D06E0E06840F0010394E807007F
:1006F00098471034AC42F6D3FFF74AFDC4450008D2
:10070000E4450008202A04DB203A00FA02F1002028
:1007100070479140C2F1200320FA03F3194390403F
:100720007047202A04DB203A21FA02F000217047AA
:1007300021FA02F3D040C2F1200291400843194649
:100740007047202A06DBCB17203A41FA02F043EA31
:10075000E07306E041FA02F3D040C2F1200291407A
:1007600008431946704710B5141E73F1000408DAE7
:10077000401C41F1000192185B411A4301D120F065
:10078000010010BD2DE9F04D92469B4611B1B1FA22
:1007900081F202E0B0FA80F220329046FFF7B2FF19
:1007A00004460F4640EA0A0041EA0B0153465A4606
:1007B000084313D0114653EA010019D0C8F1400292
:1007C0005046FFF7AEFF05460E4650465946424694
:1007D000FFF798FF084305D0012004E02046394682
:1007E000BDE8F08D0020054346EAE0762C43374310
:1007F0000A986305E40AA0EB08000022FD0A44EA17
:1008000047540A3002D500200146E9E701051019D6
:100810006941DDE9084500196941BDE8F04DA2E7ED
:10082000FEE770472DE9F041002201274FF0030C4D
:1008300007FA02F50B682B40AB422CD10668530037
:100840000CFA03F4A64306600E79D0F800809E40AF
:1008500046EA080606600E79012E01D0022E12D15A
:100860008668A64386604E79D0F808809E4046EAA6
:10087000080686604668AE43466045688E799640B5
:10088000B6B235434560C568A543C560CC799C4088
:10089000C3681C43C460521C102AC9D3BDE8F08150
:1008A00010B54B07DB0E9A40C90800EB8100016AC6
:1008B0000F249C40A1430162016A1143016210BDF3
:1008C0000246002012690A4200D0012070470183CD
:1008D000704742694A4042617047FEE7FEE7704751
:1008E00030B50F23C27801250178002A1FD0154AA0
:1008F000126802F4E062C2F5E062C2F30722C2F1BC
:100900000404D3404278A24084781C40144322015E
:1009100001F1E02181F80024007800F01F018D40F2
:100920004009800000F1E020C0F8005130BD01F026
:100930001F0085404809800000F1E020C0F8805188
:1009400030BD00000CED00E0024908430249086098
:10095000704700000000FA050CED00E0054A002990
:1009600003D0116801431160704711688143116021
:100970007047000030380240054A002903D0116852
:100980000143116070471168814311607047000096
:1009900040380240054A002903D011680143116024
:1009A000704711688143116070470000443802406D
:1009B00070B5244B196801F00C01234C00291ED09E
:1009C000661004291DD008291DD00460196801F0A3
:1009D000F00109091D4A545C0168E14041601C684E
:1009E00004F4E054A40A145D21FA04F484601B6842
:1009F00003F460435B0BD25CD140C16070BD046006
:100A0000E4E70660E2E70F4A121F1168C1F3805560
:100A1000116801F03F0135B1B6FBF1F11468C4F380
:100A20008814614305E0B4FBF1F11468C4F3881441
:100A300061431268C2F30142521C5200B1FBF2F151
:100A40000160C3E7083802400024F40014000020CD
:100A5000F0B587B001211020FFF79CFF0121084667
:100A6000FFF77CFF02258DF818502802059003201F
:100A70008DF8190000248DF81A4001268DF81B60AE
:100A80002A4F05A93846FFF7CDFE8DF818506902A8
:100A900005918DF81B4005A93846FFF7C3FE0722D4
:100AA00009213846FFF7FCFE07220A213846FFF7E6
:100AB000F7FE4FF4E1300190ADF810400C20ADF896
:100AC0000E00ADF80C40ADF80A40ADF80840184DE6
:100AD00001A9284600F0ACFA012240F2255128462F
:100AE00000F08BFA25218DF800108DF803600621A7
:100AF0008DF801108DF802406846FFF7F1FE0121E4
:100B0000284600F047FA00226C210A2002F056FF26
:100B1000084C206030B1012002F044FF60600028E2
:100B200001D1FEE7FEE707B0F0BD00000000024083
:100B300000100140400000200FB400B599B01BAA7E
:100B400068461A9900F000FB684600F045F819B0B5
:100B50005DF814FB30B40446002C08D0054800684A
:100B600028B10A46214630BC002302F05DBF30BCEC
:100B700000207047400000202DE9F0410446134E4C
:100B800000235A1E1946706802F04EFF01281AD140
:100B90000F4F2146384600F0ADFA3C040D4D04E0FD
:100BA0002C60BFF34F8FBFF36F8F8021384600F06A
:100BB000FDF90028F4D07068BDE8F04100231A4622
:100BC000194603F05FB8BDE8F08100004000002046
:100BD0000010014004ED00E02DE9F0470746DFF882
:100BE000609000235A1E1946D9F8040002F01CFF39
:100BF000012822D10024DFF84C800507124E10E0B6
:100C0000404600F077FA04E03560BFF34F8FBFF342
:100C10006F8F8021404600F0C9F90028F4D0641C91
:100C2000E4B2395D0029EBD1D9F80400BDE8F04702
:100C300000231A46194603F025B8BDE8F0870000E6
:100C4000400000200010014004ED00E00CB500223F
:100C5000019200922749086840F4803008604FF400
:100C6000A043086800F4003000900198401C0190F7
:100C7000009810B901989842F3D10868800302D512
:100C80000120009000E000920098012831D119481D
:100C90004030026842F0805202601748026842F415
:100CA000404202601348083002680260026842F461
:100CB00000420260026842F4A0520260021F0F4B21
:100CC00013600A6842F080720A600A689201FCD5DB
:100CD0000B4A40F205711160016821F003010160C7
:100CE000016841F0020101600168C1F3810102293C
:100CF000FAD10CBD00380240007000400854400793
:100D0000003C024010B5502080F31188BFF34F8F94
:100D1000BFF36F8F03F00EFA18B104494FF0805003
:100D20000860002080F3118810BD000004ED00E091
:100D300010B51248016841F4700101601048016863
:100D400041F0010101600E4A002108321160026881
:100D50000C4B1A400260031D0B4A1A60026822F411
:100D60008022026006480C300160FFF76FFF0349E4
:100D70004FF000608039086010BD000088ED00E091
:100D800000380240FFFFF6FE1030002410B50121AC
:100D90008C07204600F01FF8002809D0054841695B
:100DA000491C41612046BDE81040012100F004B813
:100DB00010BD000024000020C943018270470029B3
:100DC00004D0018841F0010101807047018821F0C1
:100DD00001010180704702460020138A0B4092896E
:100DE0000A40002B02D0002A00D001207047002AC0
:100DF00003D082890A438281704782898A43828133
:100E00007047000030B50288164C174DA0420DD037
:100E1000A8420BD0B0F1804F08D0144B984205D0B7
:100E2000134B984202D0134B984203D122F0700327
:100E30004A881A43104B984206D0104B984203D070
:100E400022F440730A891A4302804A68C2620A88FF
:100E50000285A04201D0A84201D1897A01860121F0
:100E6000818230BD000001400004014000040040C8
:100E700000080040000C004000100040001400403A
:100E800070B59CB000251B953A4E40F22551304676
:100E900000F093F8384C01280AD1304600F026F9CA
:100EA000C2B2217869B1012912D0022922D025705D
:100EB0004FF458752946304600F07FF8012842D09B
:100EC0004AE0402AF4D10120207065802571EFE7C7
:100ED0000D2A07D06188632907D2481C6080081951
:100EE0000271E5E702202070E2E7A06E401CA066D8
:100EF0002570DDE70A2A04D0A06E401CA06625708C
:100F0000D6E76288D2B1ADF8642003F00BF91A90ED
:100F10006288211D6846FFF7AFF9BDF864000DF83F
:100F20000050164800231BAA6946006802F076FFAD
:100F3000012806D0A06E401CA06602E0A06E401CF6
:100F4000A0662570B4E7318830468188294600F0D4
:100F500019F8A06E401CA0661B98002807D008490D
:100F60004FF080500860BFF34F8FBFF36F8F1CB0FE
:100F700070BD000000100140C800002040000020AB
:100F800004ED00E040F66A120A0A01219140C943CB
:100F900001807047002904D0818941F4005181818A
:100FA0007047818921F400518181704702460020F9
:100FB00012880A4200D00120704770B5002440F624
:100FC0006A12C1F3421301F01F05012606FA05F269
:100FD000012B0CD0022B0DD0838A1340090A8E40BE
:100FE000008830400BB100B10124204670BD8389D8
:100FF0001340F3E7038A1340F0E710B540F66A1395
:10100000C1F3421301F01F040121A140012B07D0BD
:10101000022B07D014303AB102680A43026010BDB7
:101020000C30F8E71030F6E702688A43026010BD22
:101030007FB504460D46208A20F44051E8880843D5
:101040002082A08941F20C618843A9882A89114332
:101050006A8902431143A181A08A20F44071A889C2
:101060000843A0826846FFF7A3FC1E48844202D0D2
:101070001D48844201D1039800E00298A189090427
:1010800008D500EBC00101EB001029684900B0FB56
:10109000F1F007E000EBC00101EB001029688900C6
:1010A000B0FBF1F06422B0FBF2F109010B096FF023
:1010B00018056B4300EB8300A3891D044FF0320336
:1010C00007D503EBC000B0FBF2F000F007000843C7
:1010D00006E003EB0010B0FBF2F000F00F00084355
:1010E00020817FBD00100140001401408088C0F3C2
:1010F00008007047C1F3080181807047FEE70000D7
:101100000FB4054B10B503A9044A029800F000F98A
:1011100010BC5DF814FB0000A11C0008C4000020F6
:101120000FB4084B10B504A902AA039800F0F0F818
:10113000044602A9002000F05EFD204610BC5DF8C8
:1011400014FB0000F71B000837B514460846064B91
:101150006A46214600F0B8F904466946002000F0CE
:101160004FFD20463EBD0000011C000802E008C8FB
:10117000121F08C1002AFAD170477047002001E011
:1011800001C1121F002AFBD1704700002DE9FF5F4B
:1011900082B00021DDE90430020DDDF840B00343E8
:1011A00018D044F61050A2F2FF32424315141198A1
:1011B00001281FD0A5EB0B00401C5FEA000A4FF08E
:1011C00000064E4FDFF83891B046504615D5CAF1AB
:1011D000000413E0119801244AA3012801D16FEA09
:1011E0000B010298119AC0E90031C0E9024206B031
:1011F000BDE8F09FCBF10000DFE704460021404A44
:10120000491842EB0450CDE9001012E0E00707D086
:1012100032463B4640464946FFF750F980468946EC
:1012200032463B4610461946FFF748F906460F4638
:101230006410002CEAD1DDE90401DDE90023BAF1F4
:10124000000F06DAFFF73AF942464B46FFF736F948
:1012500005E0FFF7A5F942464B46FFF7A1F9044622
:101260000E460022284BFFF723FA03D84FF0FF3039
:10127000014607E00022254B20463146FFF777F86C
:10128000FFF7FDF9102409E0002C0ADB0A220023F5
:10129000FFF73CF8039B30321A55641E50EA0102F6
:1012A000F2D1641C039AC4F111031444119A012A67
:1012B00003D0012208430DD10AE0084304D00020E6
:1012C0004FF0110B119072E7A3EB0B056D1E0DE0B3
:1012D0005B4504DD4FF0000205F1010504E003DA8F
:1012E0004FF00002A5F10105002AECD002981199F7
:1012F000C0E90231C0E9004579E700000000144070
:101300000000F03F300000000000F0430000E03F2C
:101310002DE9FF4F8BB09A460F460546002606E0A2
:1013200025280BD052460D9990476D1C761C2878C5
:101330000028F5D10FB03046BDE8F08F0024A0465C
:101340000122604900E0044315F8013F203B02FA06
:1013500003F00842F7D128782E2817D115F8010F8D
:1013600044F004042A280ED06FF02F022878A0F150
:10137000300109290AD808EB880102EB410100EB92
:1013800001086D1CF2E757F8048B6D1C287869285A
:101390003ED006DC0028CDD063280BD0642804D1D1
:1013A00036E0732810D075284BD052460D999047DF
:1013B000761C85E017F8040B8DF8000000208DF8EE
:1013C0000100E946012003E057F8049B4FF0FF308D
:1013D00061074FF0000401D40AE0641C44450DDAB3
:1013E0008442FADB19F804100029F6D106E0641CE7
:1013F0008442FCDB19F804100029F8D1264404E0EB
:1014000019F8010B52460D999047641EF8D257E027
:1014100001CF4FF00A0B002802DA40422D2102E0F2
:10142000210504D52B218DF82410012103E0E107CB
:1014300005D02021F7E70DF1200908910CE00021EB
:10144000F9E701CF4FF00A0BF9E75946FEF748FFDD
:1014500001F1300209F8012D0028F6D1ADEB0900A9
:1014600000F1200B600701D44FF00108D84502DDE0
:10147000A8EB0B0000E000208046002406E009A84D
:101480005246005D0D999047641C761C0898844272
:10149000F5DB04E0302052460D999047761CB8F1F8
:1014A0000001A8F10108F5DC05E019F8010B52462E
:1014B0000D999047761CBBF10001ABF1010BF4DCF8
:1014C0006D1C34E7092801002DE9FF4F95B09B46BC
:1014D0008946064600250FE2252877D100242746B5
:1014E000F84A0121059400E0044316F8013F203B2F
:1014F00001FA03F01042F7D130782A2811D06FF0AA
:101500002F033078A0F13002092A16D8059A44F04A
:10151000020402EB820203EB42021044761C0590A7
:10152000EFE759F8042B0592002A03DA504244F4FD
:101530000054059044F00204761C30782E2816D111
:1015400016F8010F44F004042A280DD06FF02F0282
:101550003078A0F13003092B09D807EB870302EBA1
:101560004303C718761CF3E759F8047B761C3078E0
:101570006C280FD006DC4C2817D068280DD06A28BC
:1015800014D104E0742810D07A280FD10DE044F46F
:1015900000140AE044F4801401E044F4401472782A
:1015A000824202D104F58014761C761C30786628BD
:1015B0000BD013DC582877D009DC002875D04528DB
:1015C000F6D04628F4D047281AD19DE118E06328C8
:1015D00035D0642879D0652812D195E1702873D070
:1015E00008DC6728F1D069286FD06E280DD06F28ED
:1015F00006D1B5E073282CD0752875D0782874D022
:101600005A46179990476D1C75E1C4F302500228A1
:1016100009D003280DD0D9F8001004280DD00D6092
:1016200009F1040967E1D9F80010EA17C1E900528D
:10163000F6E7D9F800100D80F2E70D70F0E719F821
:10164000041B8DF8001000208DF80100EA460120EF
:1016500003E059F804AB4FF0FF3061074FF0000191
:1016600002D40DE008F101018846B9420FDA804545
:10167000F8DB1AF808100029F4D108E008F101019C
:1016800088468142FADB1AF808100029F6D105983D
:101690005B46A0EB080721463846179A00F094FAFB
:1016A000284400EB080507E04DE029E10DE01AF8B9
:1016B000010B5A4617999047B8F10108F7D25B46DB
:1016C00021463846179A13E142E00A220092C4F3F9
:1016D00002524FF0000A022A08D059F804CB032A1C
:1016E0004FEAEC710AD00DE029E02AE009F1070188
:1016F00021F00702F2E802C1914609E00FFA8CFCE2
:101700004FEAEC71042A03D14FFA8CFC4FEAEC71DA
:10171000002907DA0A460021DCF1000C61EB020126
:101720002D2202E0220504D52B228DF8042001226F
:1017300003E0E20701D02022F7E7904659E00A21B2
:1017400002E010220DE010214FF0000A00910BE0A2
:1017500010224FF0000A44F004040827009203E02E
:1017600008224FF0000A0092C4F30252022A05D068
:1017700059F804CB0021032A08D009E009F1070138
:1017800021F00702F2E802C1914605E01FFA8CFC45
:10179000042A01D10CF0FF0C4FF00008220728D5D5
:1017A000702806D0009B83F0100353EA0A0305D08B
:1017B0000EE040228DF80420012208E05CEA0102DC
:1017C00006D030228DF804208DF8050002229046C4
:1017D000009B83F0080353EA0A030AD15CEA010282
:1017E00001D1620705D530228DF804204FF00108A1
:1017F0007F1E582804D034A003900EA802900DE05C
:1018000036A0F9E753466046009AFEF77FFD84460E
:101810000398825C0298401E029002705CEA01000C
:10182000F0D1029806A9081A00F1200A600702D533
:1018300024F4803400E00127574502DDA7EB0A00BD
:1018400000E0002000EB0A01009005984144401A96
:101850000590E00306D45B462146179A059800F0F0
:10186000B3F90544002706E001A85A46C05D179960
:1018700090476D1C7F1C4745F6DBE0030CD55B46AB
:101880002146179A059800F09FF9054404E030209E
:101890005A46179990476D1C0099481E00900029E0
:1018A000F5DC08E0029802995A460078491C02913A
:1018B000179990476D1CBAF10001AAF1010AF1DCF9
:1018C00065E1000009280100303132333435363704
:1018D000383961626364656600000000303132337C
:1018E000343536373839414243444546000000001C
:1018F00000F058F90544761C307800287FF4ECADF0
:1019000019B02846BDE8F08F620700D4062709F118
:10191000070222F0070CFCE80223E14603F000482E
:101920005FEA080C02D00FF2702C0DE05FEA045C55
:1019300002D50FF2682C07E05FEAC47C02D00FF2F8
:10194000602C01E0AFF2700C4FF0FF3823F0004341
:10195000CDF850C065280CD006DC452809D04628B3
:101960001DD047283DD13DE0662818D067287ED19C
:1019700038E00021112F01DB112000E0781CCDE9B7
:10198000000106A90EA8FFF701FCDDE90F010E9A80
:1019900003910021009207F1010A04914DE04FF0FC
:1019A00000400097CDE9011006A90EA8FFF7EEFB55
:1019B000DDE90F0203920E9B11990022DDF80CA0C5
:1019C0000093049211B9791C00EB010AB7EB0A00ED
:1019D00004D4C0F1FF3007F1010A0490AAEB07001C
:1019E000019044E0012F00DA01270021112F01DDD1
:1019F000112000E03846CDE9000106A90EA8FFF746
:101A0000C5FBDDE90F010E9A0391002104910092BC
:101A1000BA4621070CD40399514500DA8A46BAF137
:101A2000010F05DD009AAAF10101515C302908D0AF
:101A3000B84202DA10F1040F06DA0121CDE90110F3
:101A400015E0AAF10101E9E7002805DC0499014449
:101A50000491AAEB000102E0411C514500DD8A46D9
:101A60000499401A401C01904FF00040029020075A
:101A700004D40198504501DBCDF8048000208DF896
:101A80004F0002980DF14F07B0F1004F25D02B20E9
:101A90000E9002984FF0020800280CDA40420290A3
:101AA0002D200E9007E00A210298FEF719FC303134
:101AB000029007F8011DB8F10001A8F10108F2DC5D
:101AC00002980028EFD1791E0E980870307800F047
:101AD000200040F0450007F8020D12A8C01B00F1DD
:101AE00007081498007800B1012000EB0A01019862
:101AF00001EBE07105984144401A401E0590E00357
:101B000006D45B462146179A059800F05DF8054417
:101B10001498007818B15A46179990476D1CE00345
:101B200024D55B462146179A059800F04DF80544E8
:101B30001CE00498002807DBDDE90301884203DD8F
:101B40000098405C179901E0179930205A46904759
:101B5000049805F10105401C04900198401E019075
:101B600004D12E205A46179990476D1CBAF10001F6
:101B7000AAF1010ADDDC05E017F8010B5A461799B6
:101B800090476D1CB8F10001A8F10108F4DC5B4638
:101B90002146179A0598ABE62D0000002B000000A7
:101BA000200000002DE9F041044600251E4617469E
:101BB000880404D405E039462020B0476D1C641E1B
:101BC000F9D52846BDE8F0812DE9F041044600250D
:101BD0001E469046C80301D5302700E02027880420
:101BE00004D505E041463846B0476D1C641EF9D562
:101BF0002846BDE8F0810A68531C0B6010707047DE
:101C00000A68531C0B6010707047000070B50546E1
:101C1000002D05D140F2FB4214A11BA0FFF770FA82
:101C20001D4E3068854201D1002070BD01F07CF866
:101C30006C6901F0B5F8F06B844202D0306C8442DC
:101C400001D1022070BD1548844205D1A86A08B1AF
:101C5000022070BD032070BD10481438844202D0A9
:101C60000CB1012070BD042070BD00002E2E5C2E32
:101C70002E5C4672656552544F535C7372635C749C
:101C800061736B732E6300004572726F723A257335
:101C90002C25640D0A000000480000205404002098
:101CA00010B50446E0B2FEF767FF204610BD000005
:101CB00001484069704700002400002010B5102141
:101CC0000948FEF7FDFD50B1002401210748FEF749
:101CD000F7FD012805D000202044C0B210BD01242A
:101CE000F3E70220F8E70000001002400000024085
:101CF0001CB501211020FEF731FE102000900024B9
:101D00008DF805408DF8044069460948FEF78AFDC4
:101D100001210846FEF722FE012000908DF80540C3
:101D200002208DF8040069460248FEF77BFD1CBDC9
:101D300000100240000002401CB501211020FEF7F7
:101D40000DFE6020009002208DF8050001208DF826
:101D5000040000218DF806108DF80700044C694638
:101D60002046FEF75FFD60212046FEF7B0FD1CBD5A
:101D7000001002401CB5FEF7DBFF4FF44070FEF789
:101D8000E3FD00F0D7FE00250620CDE900052B4637
:101D9000802213A1164802F007F916480521CDE963
:101DA00000100023802214A1164802F0FDF8164806
:101DB0000090002301220A2114A002F05FFB0D4CC9
:101DC0000C3C206140B102F0A7F9024600950023C7
:101DD0000121206902F0A6FB01F078FCFEE700007B
:101DE000486172647761726520496E697400000011
:101DF000092B000830000020496E6974205461737B
:101E00006B000000912B0008813800085065726952
:101E10006F64696354696D65720000002DE9F041DB
:101E200004460F46174EF5683068001D00F004FEAA
:101E300038B9306890F82C1001208840316981430E
:101E40003161601C07D137B13168BDE8F041091D2F
:101E50000D4800F05DBF2C4430684460AC4206D2AF
:101E60003168306C091DBDE8F04100F039BF3168C0
:101E7000F06B091D00F034FFB06A844200D2B462F6
:101E8000BDE8F081480000205404002070B50446ED
:101E900000F04AFF1D4DA868401CA860286810B1DA
:101EA000686938B10CE02C60A868012808D100F0FE
:101EB000E1F905E02868E16AC06A884200D82C6030
:101EC000686A401C68626064E06A01212A69814096
:101ED000114329610E4900EB800001EB8000211DB8
:101EE00000F016FF00F05CFF686900280CD028683D
:101EF000E16AC06A884207D206494FF08050086004
:101F0000BFF34F8FBFF36F8F70BD000048000020FC
:101F10008401002004ED00E010B500F005FF0E4C38
:101F20002068A0B90D4800F0CDFE0C48143000F038
:101F3000C9FE0A48E06014302061002210210A2006
:101F400001F03CFD206010B105A101F001F8BDE8F1
:101F5000104000F025BF00008C0000206804002025
:101F6000546D72510000000070B5124E124D1CE00D
:101F700001F0FAFB306820B1002402F005FAA4B9A0
:101F800001E00124F9E700F0CFFEF068C468201DED
:101F900000F052FDA868401EA8606868401E686096
:101FA00000F0FEFE204600F054F868680028DFD1FB
:101FB00070BD0000400400204800002030B40B46F3
:101FC000026C002A0CD0C1681144C1604468A1426F
:101FD00001D30168C160C16830BC1846FEF74CB936
:101FE00030BC70472DE9F041044617460026A56B2A
:101FF000226C002A10D0C7B1E068FEF73DF9E16815
:10200000206C091AE1602268914202D26168081AC4
:10201000E060022F16D017E02068A8B9606802F0CF
:1020200003F90646002060600EE0A068FEF724F980
:10203000216CA0680844A0606168884204D32068CD
:10204000A06001E005B16D1E6D1CA5633046BDE8C2
:10205000F08110B50446206B00F0D6FE2046BDE8A6
:10206000104000F0D1BE00000749CA68116800297D
:1020700004D00021016019B1002070470121F9E767
:10208000D0680068704700008C0000204FF41041B9
:102090000F48420706D0C01D20F007000C49411A26
:1020A000C1F510410B4A1060002353600144083908
:1020B00021F00701103A11604B600B600B1A43606E
:1020C00001604068906050604FF00040D060704701
:1020D00090040020BC000020074E4FF08054074DB4
:1020E000FFF742FF30680128FAD92C60BFF34F8F09
:1020F000BFF36F8FF4E700008401002004ED00E0DF
:10210000002808D0002141600160C16000231A4608
:10211000194601F0B7BD704770B51D46049C0029F3
:102120000BD02260E06321640121204601F050FDC4
:1021300084F850500020A06470BD2460F2E70000D5
:102140002DE9F047DDE908580A9C81460E461746FE
:102150009A46B900A522206BFEF7A0F8206B7F1EDF
:1021600000EB870020F00707780705D040F22B32FC
:1021700019A120A0FEF7C4FF00202218315C82F8CC
:102180003410315C11B1401C1028F6D3002684F8BD
:102190004360202D00D31F25E562E5642665201DE0
:1021A00000F09BFD04F1180000F097FD2461C5F1DB
:1021B0002000A06164626665A66584F85C60524692
:1021C0004946384600F0F2FB2060B8F1000F01D01C
:1021D000C8F80040BDE8F0872E2E5C2E2E5C4672BB
:1021E000656552544F535C7372635C7461736B73B7
:1021F0002E6300004572726F723A25732C25640DB0
:102200000A0000002DE9F047DDE9089406460D4676
:1022100017469846002D05D14FF4C6720AA111A0A9
:10222000FEF76EFF002C0DD0FFF776FE2660A5614D
:10223000E761C4F82080C4F82490201DBDE8F04771
:1022400000F04BBDBDE8F0872E2E5C2E2E5C467252
:10225000656552544F535C7372635C74696D65724B
:10226000732E63004572726F723A25732C25640DCC
:102270000A00000070B50024114D04EB840005EB4A
:10228000800000F01FFD641C202CF6D30D4800F0E8
:1022900019FD0C48143000F015FD0A48283000F0F4
:1022A00011FD08483C3000F00DFD0648503000F0AC
:1022B00009FD05480349C1631431016470BD000084
:1022C00084010020040400204800002030B5134998
:1022D00000E011460A688242FBD34B685C188442D6
:1022E00003D140681844486008460D6844682318C4
:1022F000AB420DD1094B103B1B689A4206D0526885
:10230000224442600A681268026002E0036000E052
:102310000260814200D0086030BD0000BC00002097
:1023200070B50024416000610C4D91420AD8D11A69
:102330008269914201D301240EE0011D286900F059
:10234000CFFC09E09A4203D2994201D3012403E071
:10235000011DE86800F0C4FC204670BD8C00002020
:1023600010B5044600F0E0FCA06B20B1002400F0A2
:1023700017FD204610BD0124F9E710B5044600F012
:10238000D3FCA06BE16B884201D1012400E0002462
:1023900000F006FD204610BD2DE9F04780460C46B2
:1023A000914600262068002821D0214648684068D0
:1023B000486001F10807B84201D1406848604868A8
:1023C000D0F80CA0606845686560BD4201D16968BD
:1023D00061606068C56806EBC60008EB80014B468B
:1023E0000122284600F0A2FF761C5545EAD130466E
:1023F000BDE8F0872DE9F3410F460098846C002674
:10240000002C05D140F6CE1216A11DA0FEF778FED5
:10241000A06BE16B884205D340F6CF1211A118A042
:10242000FEF76EFEA06BE16B88420CD294F945502A
:102430003A4669462046FFF7D5FD0646681C05D09A
:102440006D1C84F845503046BDE8FC81606A002868
:10245000F9D004F1240001F045FF0028F3D0012653
:10246000F1E700002E2E5C2E2E5C467265655254FC
:102470004F535C7372635C71756575652E63000004
:102480004572726F723A25732C25640D0A000000A4
:10249000F8B505460E461348C068C068C468201DDC
:1024A00000F0CAFAE069012816D1A0692B4641194B
:1024B00032462046FFF734FF70B100200346014644
:1024C00000902A46204602F02DF828B94FF40272F7
:1024D00005A10CA0FEF714FE616A01B02046BDE81C
:1024E000F04008478C0000202E2E5C2E2E5C467299
:1024F000656552544F535C7372635C74696D6572A9
:10250000732E63004572726F723A25732C25640D29
:102510000A00000070B586B02F4E53E002980028E4
:1025200003DADDE90320059990470298002849DB8A
:10253000049C606910B1201D00F07EFA01A800F033
:10254000ABF8054602980A283CD2DFE800F0050502
:10255000053B273805053B270398A169034601443D
:102560002A462046FFF7DCFE00282BD0616A204671
:102570008847E069012825D1002000900398A169CF
:10258000002342181946204601F0CCFFD0B940F292
:10259000213212A118A0FEF7B3FD13E00398A06149
:1025A00028B94FF44E720DA113A0FEF7A9FDA06942
:1025B0002B4641192A462046FFF7B2FE02E020468C
:1025C00000F022FC00231A4602A9306801F02CFA20
:1025D0000028A3D106B070BD8C0000202E2E5C2EEA
:1025E0002E5C4672656552544F535C7372635C7423
:1025F000696D6572732E63004572726F723A25734E
:102600002C25640D0A000000F8B506460D4601F0C1
:10261000ABF8684600F040F80446009810B101F0AD
:10262000B3FEF8BD45B9A64206D801F0ADFE21467D
:102630003046FFF72DFFF8BD0C481DB10169096850
:1026400091B10025311B2A46006800F093FC01F08F
:102650009BFE0028EFD106494FF080500860BFF381
:102660004F8FBFF36F8FF8BD0125EBE78C00002083
:1026700004ED00E00748C16B0968002905D0C16B73
:10268000C968C9684968816270474FF0FF3181624B
:10269000704700004800002070B5054601F03CFD81
:1026A0000446074EB068844204D200F00BF80120C3
:1026B000286001E000202860B460204670BD000062
:1026C0008C000020F8B5184E25E0C0680568C46885
:1026D000201D00F0B1F9616A20468847E0690128B1
:1026E00019D1A0692844A84206D960602461211D3F
:1026F000F06800F0F5FA0EE0002003460146009075
:102700002A46204601F00EFF28B940F2923207A176
:102710000DA0FEF7F5FCF06801680029D5D1F0683E
:102720003169F1603061F8BD8C0000202E2E5C2EE6
:102730002E5C4672656552544F535C7372635C74D1
:10274000696D6572732E63004572726F723A2573FC
:102750002C25640D0A000000002101E0401C491CEA
:102760000278A52AFAD0880880B2704708484068E5
:10277000401C05D040F20F1206A111A0FEF7C0FCCC
:10278000502080F31188BFF34F8FBFF36F8FFEE7A8
:10279000A00000202E2E5C2E2E5C467265655254E1
:1027A0004F535C706F72745C525644535C41524D8F
:1027B0005F434D34465C706F72742E6300000000FE
:1027C0004572726F723A25732C25640D0A00000061
:1027D00008B56846FFF748FC0099FFF715FFFFF7BB
:1027E00099FEF6E72DE9F041044600F09DFA94F9D0
:1027F000455004F1240613E0A06C38B100212046B6
:10280000FFF7F8FD50B100F08BFE07E0606A48B1B9
:10281000304601F067FD08B100F082FE6D1E6DB21A
:10282000002DE9DC4FF0FF3684F8456000F0B8FA7F
:1028300000F07AFA94F9445004F1100709E0206995
:1028400048B1384601F04EFD08B100F069FE6D1E3A
:102850006DB2002DF3DC84F84460BDE8F04100F077
:102860009FBA10B504462046FDF731FD2046FDF71E
:1028700027FD202101E02154401C0F28FBD300211B
:102880002154204410BD00002DE9F04105460026EA
:1028900000F06AFF304F386808B9FFF7F7FBF868B7
:1028A00005424BD175B1083568070BD005F007001C
:1028B000C0F108000544680704D0BF2227A131A059
:1028C000FEF71EFC002D39D07868854236D82249A3
:1028D00010310846046801E0214604466068A842B9
:1028E00002D220680028F7D13868844226D00E68CA
:1028F0000836206808606068401B102811D904EB76
:1029000005085FEA487004D0EC2214A11DA0FEF770
:10291000F7FB6068401BC8F8040065604046FFF79D
:10292000D5FC61687868401A7860BA68904200D235
:10293000B860F868014361600020206001F024FD68
:10294000700705D04FF4967204A10EA0FEF7D8FBD5
:102950003046BDE8F0810000AC0000202E2E5C2E39
:102960002E5C4672656552544F535C706F72745C96
:102970004D656D4D616E675C686561705F342E6397
:10298000000000004572726F723A25732C25640DA9
:102990000A00000004490868002803D00868026D96
:1029A000521C0265086870474800002024384FF028
:1029B0008073036221F00101C161044981614260B9
:1029C0006FF0020140F82019704700006D270008E1
:1029D00070B506460C4600F0A7F9154D2868806DC5
:1029E00080B92A68012082F85C005CB10121204690
:1029F000FFF714FA0F494FF080500860BFF34F8F74
:102A0000BFF36F8F00F0CCF900F08EF92868846D69
:102A1000002034B116B12968886502E02A68611E79
:102A20009165296881F85C0000F0BAF9204670BD14
:102A30004800002004ED00E00169D0E901329A600D
:102A4000D0E901235A604A68824201D182684A6013
:102A5000002202610868401E086070472DE9F047B7
:102A600006460B4617460024202500F07DFEDFF8C1
:102A70008C80D8F8080083423BD3DFF884906D1E29
:102A800005EB850009EB800104EBC40006EB800038
:102A90000122FFF781FC0444002DF0D104EBC400B7
:102AA00006EB80000222D8F83C10FFF775FC0444C6
:102AB00004EBC40006EB80000222D8F84010FFF7B8
:102AC0006BFC044404EBC40006EB800004220D49B7
:102AD000FFF762FC04440B4904EBC40006EB8000E2
:102AE00003221431FFF758FC044417B1FFF7E0F854
:102AF000386001F049FC2046BDE8F087480000201E
:102B0000840100204004002010B5FFF715F9FFF7FD
:102B1000EFF8FDF79DFF0648002302221946C06822
:102B200001F072FABDE81040002000F095BB0000F3
:102B3000240000207FB501210846FDF71DFF40F26B
:102B4000E73002905320ADF804000024ADF80C40AB
:102B5000ADF806404FF0804501A92846FEF752F92E
:102B6000012211462846FEF742F91C218DF800107B
:102B70000A218DF801108DF8024001218DF8031013
:102B80006846FDF7ADFE01212846FEF718F97FBD26
:102B90007CB54FF0FF310120FFF71AFF20480125D7
:102BA000CDE90050002380221EA1214801F0FCF94C
:102BB0001B480221001DCDE90010002380221DA129
:102BC0001F4801F0F1F9164803210830CDE9001043
:102BD000002380221BA11E4801F0E6F904200024F6
:102BE000CDE900048601234632461AA11D4801F0B2
:102BF000DBF9CDE90054002332461BA11D4801F04A
:102C0000D3F91DA0FDF7E8FFFFF752F8014623A016
:102C1000FDF792FFBDE87C40002000F01DBB0000E6
:102C2000240000204C4544205461736B00000000D8
:102C3000653100084C454420436F6E74726F6C0020
:102C4000813100084B6579205363616E00000000FC
:102C50009D310008554152542050726F6365737363
:102C60000000000019380008435055205374617467
:102C700073000000BD2F0008CFB5CDB3B3F5CABCBB
:102C8000BBAFCDEAB3C9A3ACD3A6D3C3C8CECEF1F4
:102C9000D2D1C6F4B6AF0D0A00000000CAB1BCE440
:102CA000CDB3BCC6B6A8CAB1C6F7D2D1C6F4B6AFCA
:102CB000A3ACB5B1C7B0BCC6CAFDD6B53A20256C29
:102CC000750D0A0000F1080141604FF0FF3282608B
:102CD000C1600161002101607047002101617047FE
:102CE00030B50C68621C02D000F1080202E00269F3
:102CF00004E01A4653681D68A542FAD953684B6030
:102D000099608A60516008610168491C016030BDAA
:102D100042684A6093688B6093685960916008616B
:102D20000168491C01607047502080F31188BFF38F
:102D30004F8FBFF36F8F09494868401C48600128D6
:102D40000AD10748006810F0FF0F05D040F2B91211
:102D500004A10FA0FEF7D4B970470000A000002026
:102D600004ED00E02E2E5C2E2E5C467265655254FA
:102D70004F535C706F72745C525644535C41524DB9
:102D80005F434D34465C706F72742E630000000028
:102D90004572726F723A25732C25640D0A0000008B
:102DA00010B5094C6068002805D14FF4E07207A106
:102DB00011A0FEF7A5F96068401E6060002801D1EF
:102DC00080F3118810BD0000A00000202E2E5C2E84
:102DD0002E5C4672656552544F535C706F72745C22
:102DE000525644535C41524D5F434D34465C706FC4
:102DF00072742E63000000004572726F723A257380
:102E00002C25640D0A00000070B500282AD008386F
:102E10000446154D6068E968084205D14FF4A07278
:102E200012A11CA0FEF76CF9206828B140F24112F3
:102E30000EA118A0FEF764F96068E968084211D095
:102E40002268002A0ED18843606000F08DFC606823
:102E50006968084468602046FFF738FABDE87040AA
:102E600001F092BA70BD0000AC0000202E2E5C2E46
:102E70002E5C4672656552544F535C706F72745C81
:102E80004D656D4D616E675C686561705F342E6382
:102E9000000000004572726F723A25732C25640D94
:102EA0000A00000006484FF47A710068B0FBF1F1A7
:102EB0004FF0E020491E4161072101617047000089
:102EC0000000002010B5FDF7C1F9104C10280CD3FC
:102ED00000F1E02090F8F0032178884205D24FF409
:102EE00040720BA115A0FEF70BF918480068A16805
:102EF00000F4E060884207D9BDE810404FF4447206
:102F000003A10EA0FEF7FCB810BD0000A000002039
:102F10002E2E5C2E2E5C4672656552544F535C70AB
:102F20006F72745C525644535C41524D5F434D3452
:102F3000465C706F72742E63000000004572726F01
:102F4000723A25732C25640D0A0000000CED00E098
:102F500010B50022064B53F832401CB1521C0A2A0D
:102F6000F9D310BD43F8321003EBC201486010BD25
:102F70003401002070B504460D461646FFF7D4FE16
:102F800094F944304FF000005B1C01D184F84400F8
:102F900094F94510491C01D184F84500FFF700FF62
:102FA000A06B28B93246294604F1240000F0EEFA5D
:102FB0002046BDE87040FFF715BC0000ADF5007D70
:102FC0004FF4FA6000F00CF920A0FDF705FE2A4D41
:102FD0004FF47A774FF40076384600F001F9FEF7A7
:102FE00067FE0446A8692146221A24A0FDF7A4FD25
:102FF000AC6131466846FDF758F9684600F032FA90
:1030000026A0FDF7E9FD31A0FDF7E6FD6846FDF7D6
:10301000E3FD22A0FDF7E0FD31466846FDF745F9E6
:10302000684600F0BFF935A0FDF7D6FD6846FDF70C
:1030300047F918B16846FDF7CFFD02E037A0FDF76C
:10304000CBFD3BA0FDF7C8FDC6E70000D5E2CAC72F
:10305000D2BBB8F653544D33322D46726565525487
:103060004F532D435055C0FBD3C3C2CACDB3BCC6CA
:10307000CAB5D1E9210D0A0024000020B6A8CAB1C2
:10308000C6F7BCC6CAFD3A20256C752C20D4F6C103
:10309000BF3A20256C750D0A000000002D2D2D2D46
:1030A0002D2D2D2D2D2D2D2D2D2D2D2D2D2D2D2D50
:1030B0002D2D2D2D2D2D2D2D2D2D2D2D2D2D2D2D40
:1030C0002D2D2D2D2D2D2D2D2D0D0A00C8CECEF1FF
:1030D000C3FB202020202020C8CECEF1D7B4CCAC1A
:1030E00020D3C5CFC8BCB620CAA3D3E0D5BB20C867
:1030F000CECEF1D0F2BAC50D0A000000C8CECEF196
:10310000C3FB202020202020D4CBD0D0BCC6CAFDB9
:10311000202020CAB9D3C3C2CA0D0A00CEDECDB367
:10312000BCC6CAFDBEDDBFC9D3C30D0A0000000086
:103130002D2D2D2D2D2D2D2D2D2D2D2D2D2D2D2DBF
:103140002D2D2D2D2D2D2D2D2D2D2D2D2D2D2D2DAF
:103150002D2D2D2D2D2D2D2D2D2D2D2D2D0D0A0D02
:103160000A000000054D4FF0FF3421460120FFF713
:103170002FFC20212846FDF7ACFBF6E700100240AB
:10318000054D4FF0FF3421460120FFF721FC40217F
:103190002846FDF79EFBF6E70010024000240F4F83
:1031A0004FF0FF3841460120FFF712FC2646FEF79C
:1031B00085FD044624EA0605012D05D100230222DF
:1031C0001946786800F020FF022DEBD1002302227F
:1031D0001946386800F018FFE4E7000024000020DA
:1031E00010B504460020002C10D00E48006B28B10A
:1031F00040F2CF420CA113A0FDF782FF00F0B4FA19
:1032000000212046FEF70AFE01F0BEF8002807D193
:1032100010494FF080500860BFF34F8FBFF36F8F9E
:1032200010BD0000480000202E2E5C2E2E5C467241
:10323000656552544F535C7372635C7461736B7356
:103240002E6300004572726F723A25732C25640D4F
:103250000A00000004ED00E070B50446FFF764FDCD
:10326000234D04B92C68201DFFF7E6FB58B9E06A2E
:10327000204A00EB800152F8211021B90121814040
:10328000286988432861A06A18B104F11800FFF783
:10329000D3FB686A401C68622868844207D1211DFC
:1032A0001548FFF735FD6868401C686007E0A868AE
:1032B000401EA8602046FEF7CCFEFFF7DBF9FFF7C3
:1032C0006FFD6869002812D0286884420FD1286BEE
:1032D00028B140F2654209A10FA0FDF711FF124984
:1032E0004FF080500860BFF34F8FBFF36F8F70BDFA
:1032F0004800002084010020400400202E2E5C2E77
:103300002E5C4672656552544F535C7372635C74F5
:1033100061736B732E6300004572726F723A25738E
:103320002C25640D0A00000004ED00E02DE9F041B9
:1033300007460C4690461E46002F0ED03D4625609F
:1033400005F134006060E86A2061286BE061686C18
:10335000A060207B032803D00AE011480568EEE74F
:1033600000F002FAA86A08B10220207301F00CF8FC
:10337000E86C6061686DA061052E01D0267303E0E2
:103380003846FEF743FC2073B8F1000F05D0286BD8
:10339000FFF7E2F92084BDE8F08100202084FAE7FD
:1033A00048000020FEB50646002535702648816895
:1033B0000291806800EBC0008000FFF765FA0446C8
:1033C00020003FD06A460299FFF748FB0290009820
:1033D0006421B0FBF1F0009088B301952BE00198D7
:1033E000009A00EBC00004EB80008169B1FBF2F5AC
:1033F00041683046FFF735FA06465DB101982B4625
:1034000000EBC00004EB800010A182693046FDF79C
:1034100087FE09E0019810A100EBC00004EB8000DA
:1034200082693046FDF77CFE3046FCF749FF0644D2
:103430000198401C0190DDE901018842CFD320466C
:10344000FFF7E2FCFEBD00004800002009257509D9
:1034500009257525250D0A0009257509093C312521
:10346000250D0A007FB50646002434702748816880
:103470000391806800EBC0008000FFF705FA054665
:10348000280042D000220399FFF7E8FA0390029443
:1034900029E0029800EBC00005EB8000017B0129C8
:1034A0002BD002292BD003292BD004292BD0002488
:1034B00041683046FFF7D5F90646029800EBC00098
:1034C00005EB80008168028CCDE90021036922466A
:1034D0000FA13046FDF724FE3046FCF7F1FE06440E
:1034E0000298401C0290DDE902018842D1D304B069
:1034F0002846BDE87040FFF787BC5224D8E7422435
:10350000D6E75324D4E74424D2E77FBD4800002007
:103510000925630925750925750925750D0A00001A
:1035200001490120C86170474800002070B5044679
:103530000D46002C05D140F6063208A10EA0FDF77D
:10354000DFFD1148016820461831FFF7C9FB284606
:10355000BDE870400121FEF761BC00002E2E5C2EFC
:103560002E5C4672656552544F535C7372635C7493
:1035700061736B732E6300004572726F723A25732C
:103580002C25640D0A0000004800002070B5064696
:103590000D461446002E05D140F6313209A110A087
:1035A000FDF7AEFD1248016830461831FFF7B0FB59
:1035B0000CB14FF0FF3521462846BDE87040FEF7BC
:1035C0002DBC00002E2E5C2E2E5C4672656552547A
:1035D0004F535C7372635C7461736B732E63000092
:1035E0004572726F723A25732C25640D0A00000033
:1035F0004800002070B50446002839D01D4DE06A0F
:103600002968C96A884233D2A069002804DB286887
:10361000C06AC0F12000A061E06A174E00EB800094
:10362000616906EB800081421FD1201DFFF704FA7B
:10363000012150B9E06A00EB800256F8222022B93D
:103640002A6901FA00F082432A612868C06AE062B0
:103650002A6981401143296100EB800006EB80005C
:10366000211DBDE87040FFF753BB2868C06AE062C7
:1036700070BD0000480000208401002010B5044601
:10368000002C05D140F6C13204A10BA0FDF738FD96
:103690000D48016A2160C068606010BD2E2E5C2E4E
:1036A0002E5C4672656552544F535C7372635C7452
:1036B00061736B732E6300004572726F723A2573EB
:1036C0002C25640D0A000000480000201CB5174896
:1036D0000024CDE900402346802215A1164800F0C1
:1036E00063FC012801D100F0E1FE01280AD0401C52
:1036F0001BD102B040F28472BDE810400FA116A0A9
:10370000FDF7FEBC502080F31188BFF34F8FBFF34D
:103710006F8F06484FF0FF312C38816201214161E3
:10372000C460BDE81C4000F0B5B81CBD74000020AA
:1037300049444C4500000000D92000082E2E5C2E84
:103740002E5C4672656552544F535C7372635C74B1
:1037500061736B732E6300004572726F723A25734A
:103760002C25640D0A0000000248016B491C01630E
:10377000704700004800002070B51A4D286B0028E3
:1037800002D00120E86170BD0020E861FEF790FAE8
:10379000A8636A6B904204D92968821A4B6D1A4457
:1037A0004A6568632869B0FA80F0C0F11F000E4EC8
:1037B00000EB800456F8240028B940F6F6220BA14D
:1037C00011A0FDF79DFC06EB84004168496841604B
:1037D00000F10802914201D1496841604068C06827
:1037E000286070BD48000020840100202E2E5C2E31
:1037F0002E5C4672656552544F535C7372635C7401
:1038000061736B732E6300004572726F723A257399
:103810002C25640D0A0000009CB04FF0FF342146B7
:1038200001A8FDF797F9012803D005A0FDF7D4F909
:10383000F5E7BDF8682001A908A0FDF77DF9EEE7DE
:10384000B4EDCEF3A3BAB4AEBFDACAFDBEDDB0FCB0
:10385000BDD3CAD5CAA7B0DC0D0A0000CAD5B5BD14
:10386000B4AEBFDAC3FCC1EE3A2025732C20CAFDEA
:10387000BEDDB3A4B6C83A2025640D0A00000000DE
:103880000348002302221946806800F0BDBB0000F7
:10389000240000201CB52F4C20682F49884205D1F8
:1038A00040F259122DA138A0FDF72AFC20682A49C0
:1038B000491E884205D14FF4AD7228A132A0FDF710
:1038C0001FFC354C20780190FF202070207800905C
:1038D0009DF800009DF8001000F0F000884205D02F
:1038E00040F273121DA128A0FDF70AFC9DF800000C
:1038F0002A4A00F0500010700720906006E090689F
:10390000401E90609DF80000400000909DF800006F
:103910000006F4D4107A000200F4E0609060019890
:1039200020700C482030016841F47001016001688A
:1039300041F070410160FFF7B5FA00205060FCF7DC
:103940004DFC1748016841F040410160FCF736FC2E
:1039500000201CBD00ED00E071C20F412E2E5C2E38
:103960002E5C4672656552544F535C706F72745C86
:10397000525644535C41524D5F434D34465C706F28
:1039800072742E63000000004572726F723A2573E4
:103990002C25640D0A00000000E400E0A0000020D7
:1039A00034EF00E010B502460021012000F006F8D7
:1039B00004462046FEF7A4FB204610BDF8B5054698
:1039C0000E461746002D05D14FF4C4720BA112A06C
:1039D000FDF796FB86B105FB06F05430FEF754FF69
:1039E00004463CB104F154023B463146284600945B
:1039F000FEF792FB2046F8BD0020EEE72E2E5C2E4F
:103A00002E5C4672656552544F535C7372635C71F1
:103A1000756575652E6300004572726F723A257385
:103A20002C25640D0A0000002DE9FF4F83B00446E9
:103A30008A469B460026002C05D140F2DC4258A164
:103A40005EA0FDF75DFBBAF1000F07D1206C28B135
:103A500040F2DD4252A159A0FDF752FB00F04EFBAF
:103A600038B9059828B14FF49C624DA153A0FDF7D9
:103A700047FB4FF000094FF08057DFF85081FFF708
:103A800053F9A56B95B3E66851462046FEF796FAC2
:103A9000BBF1000F13D0E660606A50B104F124005E
:103AA00000F020FC28B1C8F80070BFF34F8FBFF3BF
:103AB0006F8FFFF775F9012007B0BDE8F08F6D1E1D
:103AC000A563206810B9FEF765FF606020690028D3
:103AD000EFD004F1100000F005FC0028E9D0C8F890
:103AE0000070BFF34F8FBFF36F8FE2E7FFE70598DA
:103AF00008B126B107E0FFF753F90020DCE701A881
:103B0000FFF7BCFD0126FFF74BF9FFF72DFEFFF78E
:103B10000BF994F94400401C01D184F8449094F9C5
:103B20004500401C01D184F84590FFF739F905A9FB
:103B300001A800F0EDF958B12046FEF753FE00F061
:103B400023FC2046FEF70CFC002898D00020B3E7A9
:103B50002046FEF705FCE0B1206830B9FFF7E4F835
:103B60006068FFF747FDFFF71BF904F12400059992
:103B7000FFF7DCFC2046FEF735FE00F005FC0028D0
:103B80007FF47DAFC8F80070BFF34F8FBFF36F8F26
:103B900075E72046FEF726FE00F0F6FB6FE7000013
:103BA0002E2E5C2E2E5C4672656552544F535C730C
:103BB00072635C71756575652E6300004572726F86
:103BC000723A25732C25640D0A00000004ED00E014
:103BD00070B504460D46002C05D140F21B121DA104
:103BE00023A0FDF78DFAFFF79FF8D4E90F20216895
:103BF00002FB001161600021A1632168A160E06BFC
:103C00002268216C401E00FB0121E1604FF0FF3073
:103C100084F8440084F8450004F110004DB1FFF72A
:103C200051F804F12400FFF74DF8FFF7B9F801202F
:103C300070BD21690029F8D000F054FB0028F4D0B1
:103C40000F494FF080500860BFF34F8FBFF36F8F65
:103C5000EBE700002E2E5C2E2E5C467265655254FA
:103C60004F535C7372635C71756575652E630000FC
:103C70004572726F723A25732C25640D0A0000009C
:103C800004ED00E02DE9FF4782B004468A469846DD
:103C90000025002C05D140F2D92254A15AA0FDF7ED
:103CA0002FFABAF1000F07D1206C28B140F2DA22C6
:103CB0004EA155A0FDF724FAB8F1020F08D1E06B30
:103CC000012805D040F2DB2248A14FA0FDF718FAE9
:103CD00000F014FA38B9049828B140F2DE2243A16A
:103CE00049A0FDF70DFA4FF000094FF080564A4FFA
:103CF000FFF71AF8A06BE16B884206D3B8F1020F08
:103D000003D0049860B37DB333E042465146204669
:103D1000FEF768F9A16C51B141462046FEF76AFBF7
:103D2000C0B13E60BFF34F8FBFF36F8F12E0616A87
:103D300051B104F1240000F0D5FA58B13E60BFF350
:103D40004F8FBFF36F8F05E020B13E60BFF34F8F01
:103D5000BFF36F8FFFF724F8012006B0BDE8F087AE
:103D6000FFF71EF80020F8E7FFE76846FFF786FC3C
:103D70000125FFF715F8FFF7F7FCFEF7D5FF94F9DB
:103D80004400401C01D184F8449094F94500401C43
:103D900001D184F84590FFF703F804A9684600F0C4
:103DA000B7F830B12046FEF71DFD00F0EDFA002017
:103DB000D3E72046FEF7E1FA88B104F11000049938
:103DC000FFF7B4FB2046FEF70DFD00F0DDFA0028FA
:103DD0008ED13E60BFF34F8FBFF36F8F88E72046D1
:103DE000FEF700FD00F0D0FA82E700002E2E5C2ED8
:103DF0002E5C4672656552544F535C7372635C71FE
:103E0000756575652E6300004572726F723A257391
:103E10002C25640D0A00000004ED00E02DE9F047B8
:103E20000446894615469846002C05D140F29F323B
:103E30002CA133A0FDF764F9B9F1000F07D1206C74
:103E400028B14FF4687227A12DA0FDF759F9B8F1F8
:103E5000020F08D1E06B012805D040F2A13221A168
:103E600027A0FDF74DF9FFF72DF85020EFF311874C
:103E700080F31188BFF34F8FBFF36F8FA06BE16B9F
:103E8000884207D3B8F1020F04D0002087F31188CD
:103E9000BDE8F08794F94560424649462046FEF762
:103EA000A1F8701C04D0761C84F845600120EDE771
:103EB000A06C012648B141462046FEF79BFA002837
:103EC000F4D0002DF2D02E60F0E7606A0028EDD02B
:103ED00004F1240000F006FA0028E7D0002DE5D018
:103EE0002E60E3E72E2E5C2E2E5C467265655254E2
:103EF0004F535C7372635C71756575652E6300006A
:103F00004572726F723A25732C25640D0A00000009
:103F100070B504460D46002C05D140F6CB3216A1F3
:103F20001CA0FDF7EDF82DB940F6CC3212A119A076
:103F3000FDF7E6F8FEF7F8FE1A4AD06829684B1C30
:103F400008D02368126A934206D06268824203D87E
:103F500001240DE000240BE06268801A884206D23A
:103F6000081A28602046FFF789FB002400E001249E
:103F7000FEF716FF204670BD2E2E5C2E2E5C46727C
:103F8000656552544F535C7372635C7461736B73F9
:103F90002E6300004572726F723A25732C25640DF2
:103FA0000A000000480000202DE9FF5F8146DDE99E
:103FB0000E788A4616469B46B000FEF765FC05461D
:103FC00028000AD06020FEF75FFC04460CB1256390
:103FD00004E02846FEF718FF00E000248CB1002022
:103FE000CDE90240CDE900785B463246514648466D
:103FF000FEF7A6F82046FDF749FF012004B0BDE812
:10400000F09F4FF0FF30F9E72DE9F04104460D46EF
:1040100090461F460126002C05D141F2FD0229A140
:104020002FA0FDF76DF8FEF77FFE0FB1A06D386091
:1040300094F85C00022184F85C10B8F1050F13D2EB
:10404000DFE808F01203070B0D00A16D2943A165FD
:104050000AE0A16D491CA16506E0A56504E00228FF
:1040600001D0A56500E00026012826D1201DFEF71D
:10407000E3FC1F4DE06A01212A6981401143296157
:104080001C4900EB800001EB8000211DFEF740FE83
:10409000A06A28B141F235120AA111A0FDF730F84B
:1040A000E06A2968C96A884207D913494FF08050ED
:1040B0000860BFF34F8FBFF36F8FFEF771FE30467E
:1040C000BDE8F0812E2E5C2E2E5C46726565525442
:1040D0004F535C7372635C7461736B732E63000087
:1040E0004572726F723A25732C25640D0A00000028
:1040F000480000208401002004ED00E005484169EB
:10410000002903D0006B18B10020704701207047D0
:1041100002207047480000200148C0687047000036
:104120004800002010B5FEF7CDFE0148C06810BD64
:10413000480000202DE9F04100262E4F386B002862
:1041400008D0B869401CB861F86900B10126304652
:10415000BDE8F081FD686D1CFD608DB9F86B0068ED
:1041600028B140F6D91224A12AA0FCF7C9FFF86BA8
:10417000396CF9633864386A401C3862FEF77AFAA1
:10418000B86ADFF8A08085420DD3F86B006838B1BB
:10419000F86BC068C468606885420ED2B86202E0FD
:1041A0004FF0FF30B8623868C06A00EB800058F802
:1041B00020000128C8D90126C6E7201DFEF73CFCD7
:1041C000A06A18B104F11800FEF736FCE06A01217C
:1041D0003A6981401143396100EB800008EB8000AF
:1041E000211DFEF795FDE06A3968C96A8842CCD383
:1041F0000126CAE7480000202E2E5C2E2E5C467257
:10420000656552544F535C7372635C7461736B7376
:104210002E6300004572726F723A25732C25640D6F
:104220000A0000008401002070B504460026002822
:104230003CD01F4D2868844205D040F6C7621DA1BE
:1042400023A0FCF75DFF206D28B940F6C96219A1D3
:104250001FA0FCF755FF206D401E2065E26CE16A4F
:10426000914223D010BB201DFEF7E6FB1C4A012122
:1042700050B9E06A00EB800352F8233023B92B6970
:1042800001FA00F083432B61E06CE062C0F1200092
:10429000A061E06A2B6981401943296100EB80002D
:1042A00002EB8000211DFEF733FD0126304670BD74
:1042B000480000202E2E5C2E2E5C467265655254FE
:1042C0004F535C7372635C7461736B732E63000095
:1042D0004572726F723A25732C25640D0A00000036
:1042E000840100202DE9F041C068C468002C05D18C
:1042F00040F6613216A11DA0FCF702FF04F1180080
:104300000746FEF799FB1D4D2A6B012662B139461F
:104310001B48FEF7FDFCE06A2968C96A884215D986
:104320000120EE61BDE8F081201DFEF785FBE06A0B
:104330002A6906FA00F111432961124900EB800055
:1043400001EB8000211DFEF7E3FCE4E70020E9E734
:104350002E2E5C2E2E5C4672656552544F535C7354
:1043600072635C7461736B732E6300004572726FCD
:10437000723A25732C25640D0A00000048000020C5
:104380002C040020840100202DE9F04100240027A6
:104390002B4D286B002805D14FF4FD6229A130A0D8
:1043A000FCF7AEFEFEF7C0FC286B401E2863286BAE
:1043B000F0BBA868E0B3DFF8B88001261DE0D8F8AC
:1043C0000C00C46804F11800FEF736FB201DFEF750
:1043D00033FBE06A2A6906FA00F111432961254995
:1043E00000EB800001EB8000211DFEF791FCE06AEC
:1043F0002968C96A884200D3EE61D8F80000002815
:10440000DDD10CB1FEF736F9AC6944B1FFF792FE8D
:1044100000B1EE61641E002CF8D10020A861E869AB
:1044200030B10127144938070860BFF34F8F00E00F
:1044300001E0BFF36F8FFEF7B3FC3846BDE8F081B3
:10444000480000202E2E5C2E2E5C4672656552546C
:104450004F535C7372635C7461736B732E63000003
:104460004572726F723A25732C25640D0A000000A4
:104470002C0400208401002004ED00E02DE9FC471D
:1044800006460A9D0F46904699462C20FEF7FCF9F9
:1044900004463CB1CDE900544B46424639463046CD
:1044A000FDF7B0FE2046BDE8FC8700001CB50024E7
:1044B000FDF732FD0C48006860B10B481F21001D5C
:1044C000CDE9001000234FF4807208A10948FFF7DE
:1044D0006BFD04462CB940F2331207A10DA0FCF786
:1044E0000FFE20461CBD00008C000020546D722081
:1044F00053766300D12700082E2E5C2E2E5C467268
:10450000656552544F535C7372635C74696D657278
:10451000732E63004572726F723A25732C25640DF9
:104520000A0000002DE9FF47DDF830A005460E46E1
:10453000904699460027002D05D14FF4D37215A15E
:104540001BA0FCF7DDFD1E4C2068F8B10096CDF8ED
:1045500004800295062E13DAFFF7D0FD022807D05B
:1045600000231A4669462068FFF78CFB07460DE0DA
:104570000023524669462068FFF784FB074605E0A2
:1045800000234A466946FFF749FC074604B038460F
:10459000BDE8F0872E2E5C2E2E5C46726565525467
:1045A0004F535C7372635C74696D6572732E630044
:1045B0004572726F723A25732C25640D0A00000053
:1045C0008C000020E445000800000020C800000026
:1045D0006C110008AC460008C8000020C897000015
:1045E0007C110008007A030A0000000000000000AF
:1045F0000102030406070809000000000102030489
:104600000102030406070809000000000000000082
:10461000000000000000000000000000000000009A
:10462000000000000000000000000000000000008A
:10463000000000000000000000000000000000007A
:10464000000000000000000000000000000000006A
:10465000000000000000000000000000000000005A
:10466000000000000000000000000000000000004A
:10467000000000000000000000000000000000003A
:104680000000000000000000AAAAAAAA0000000082
:10469000000000000000000000000000000000001A
:0C46A0000000000000000000000000000E
:040000050800018965
:00000001FF
