:020000040800F2
:1000000080980020550200089B0800089708000807
:1000100099080008DD070008A90F0008000000008B
:100020000000000000000000000000009D0100082A
:10003000DF07000800000000F1010008A50C00081F
:100040006F0200086F0200086F0200086F020008CC
:100050006F0200086F0200086F0200086F020008BC
:100060006F0200086F0200086F0200086F020008AC
:100070006F0200086F0200086F0200086F0200089C
:100080006F0200086F0200086F0200086F0200088C
:100090006F0200086F0200086F0200086F0200087C
:1000A0006F0200086F0200086F0200086F0200086C
:1000B0006F0200086F0200086F0200086F0200085C
:1000C0006F0200086F0200086F0200086F0200084C
:1000D0006F0200082D0D00086F0200086F02000873
:1000E0006F0200086F0200086F0200086F0200082C
:1000F0006F0200086F0200086F0200086F0200081C
:100100006F0200086F0200086F0200086F0200080B
:100110006F0200086F0200086F0200086F020008FB
:100120006F0200086F0200086F0200086F020008EB
:100130006F0200086F0200086F0200086F020008DB
:100140006F0200086F0200086F0200086F020008CB
:100150006F0200086F0200086F0200086F020008BB
:100160006F0200086F0200086F0200086F020008AB
:100170006F0200086F0200086F0200086F0200089B
:100180006F0200086F020008DFF80CD000F086FA5A
:10019000004800474D1B0008809800202A4B196832
:1001A0000868B0E8F04F80F30988BFF36F8F4FF015
:1001B000000080F3118870470000000006480068C6
:1001C000006880F3088862B661B6BFF34F8FBFF353
:1001D0006F8F00DF00BF00BF08ED00E0DFF80C000C
:1001E000016841F470010160704700BF88ED00E0D4
:1001F000EFF30980BFF36F8F134B1A681EF0100FD7
:1002000008BF20ED108A20E9F04F106008B44FF0CD
:10021000500080F31188BFF34F8FBFF36F8F02F050
:1002200051FF4FF0000080F3118808BC196808687E
:10023000B0E8F04F1EF0100F08BFB0EC108A80F34A
:100240000988BFF36F8F704740000020EFF30580EF
:10025000704700000648804706480047FEE7FEE773
:10026000FEE7FEE7FEE7FEE7FEE7FEE7FEE7FEE766
:10027000D10C00088901000840EA01039B0703D064
:1002800009E008C9121F08C0042AFAD203E011F8D5
:10029000013B00F8013B521EF9D2704730B50B46C6
:1002A000014600202022012409E021FA02F59D42A6
:1002B00005D303FA02F5491B04FA02F52844151E7A
:1002C000A2F10102F1DC30BD2DE9F05F054600200E
:1002D00092469B4688460646814640241BE02846B7
:1002E00041464746224600F0FAF953465A46C01A9C
:1002F000914110D311461846224600F0E1F92D1A1B
:1003000067EB01084F4622460120002100F0D8F992
:1003100017EB00094E41201EA4F10104DFDC484622
:1003200031462A464346BDE8F09F2DE9FE4F804600
:1003300081EA0300C00F0C46009021F0004123F039
:100340000045B8EB0200A94105D24046214690463F
:100350001C460B46024623F00040104347D0270DB1
:10036000C7F30A00C3F30A510290401A01904028D3
:100370006BDAC3F3130040F4801B0098924620B15F
:100380000023D2EB030A63EB0B0B01985946C0F133
:100390004002504600F094F906460D465046594634
:1003A000019A00F0ACF910EB08006141002487EAE3
:1003B000115284EAE7731A4340D0009A62B3019A5B
:1003C000012A4FEA075215DC001B61EB02014FF0D6
:1003D000004202EA0752CDE90042001C41F58011BB
:1003E00032462B4600F0ACF903B0BDE8F08F404632
:1003F0002146F9E7001B61EB0201001C41F5801367
:1004000000185B412018A2F5001747EB030140EAF2
:10041000D570B6196D4111E06D084FEA360645EA10
:10042000C0754FEA0752001B61EB0201001C41F549
:10043000801149084FEA30000019514132462B46DD
:1004400003B0BDE8F04F00F06CB900980122400005
:100450000023D0EB020263EBE073009821464FEAE1
:10046000E074B8EB000061EB0401E9E783F00043BE
:100470005BE781F0004158E72DE9FE4F81EA030474
:1004800004F0004421F0004100944FF0000B23F0F1
:10049000004350EA01045ED052EA03045BD0C3F388
:1004A0000A54C1F30A552C44A4F2F3340194A0FB7E
:1004B0000254C1F3130141F48011C3F3130343F455
:1004C000801301FB024400FB034E840A970A44EAAE
:1004D000815447EA8357A4FB076802958D0A05FB00
:1004E00007854FEA932C04FB0C542705029D4FEA25
:1004F000065847EA1637B5EB08056EEB070C870E72
:10050000920E47EA811742EA8312A7FB0201B6EB7B
:100510000B0164EB00042B0D43EA0C335E1844EB33
:100520001C50DA465146E7FB0201C5F313044FEABB
:100530000B3343EA14534FEA0432019C43EA0603A7
:10054000A4F10C040294009CCDE900B400F0F8F88A
:1005500003B0BDE8F08F00200146F9E72DE9F04D2A
:1005600081EA030404F0004B21F0004514464FF0EB
:10057000000A23F0004150EA050220D054EA0102AB
:100580001DD0C5F30A570246C5F31303C1F3130088
:10059000C1F30A5640F4801543F48013A7EB060814
:1005A000101BD64608F2FD3873EB050002D308F1A4
:1005B000010801E092185B41B8F1000F03DA002056
:1005C0000146BDE8F08D00204FF4801106468446B8
:1005D0000EE0171B73EB050705D3121B63EB050336
:1005E00006434CEA010C49084FEA300092185B417F
:1005F00050EA0107EDD152EA030012D082EA04006A
:1006000083EA0501084305D0101BAB4106D2012245
:10061000002306E000224FF0004302E06FF00102E9
:1006200053101AEB06004CEB085110EB0A0041EB9B
:100630000B01BDE8F04D00F074B8C1F30A52C1F3EC
:10064000130140F2FF3341F480119A4202DA002094
:100650000146704740F233439A42A2F2334202DC31
:10066000524200F03CB800F02BB8000030B5041E38
:1006700071F1000404DB4FF00044404264EB0101DF
:10068000141E73F1000405DB1C464FF00043524278
:1006900063EB0403994208BF904230BD064C074DFE
:1006A00006E0E06840F0010394E807009847103442
:1006B000AC42F6D3FFF76CFDC4400008E4400008EC
:1006C000202A04DB203A00FA02F100207047914012
:1006D000C2F1200320FA03F3194390407047202A07
:1006E00004DB203A21FA02F00021704721FA02F3DC
:1006F000D040C2F120029140084319467047202A99
:1007000006DBCB17203A41FA02F043EAE07306E039
:1007100041FA02F3D040C2F1200291400843194649
:10072000704710B5141E73F1000408DA401C41F143
:10073000000192185B411A4301D120F0010010BD65
:100740002DE9F04D92469B4611B1B1FA81F202E0DB
:10075000B0FA80F220329046FFF7B2FF04460F460F
:1007600040EA0A0041EA0B0153465A46084313D0B7
:10077000114653EA010019D0C8F140025046FFF774
:10078000AEFF05460E46504659464246FFF798FFD3
:10079000084305D0012004E020463946BDE8F08D2D
:1007A0000020054346EAE0762C4337430A98630568
:1007B000E40AA0EB08000022FD0A44EA47540A308C
:1007C00002D500200146E9E7010510196941DDE97C
:1007D000084500196941BDE8F04DA2E7FEE7704702
:1007E0002DE9F041002201274FF0030C07FA02F532
:1007F0000B682B40AB422CD1066853000CFA03F473
:10080000A64306600E79D0F800809E4046EA0806AE
:1008100006600E79012E01D0022E12D18668A64301
:1008200086604E79D0F808809E4046EA08068660C9
:100830004668AE43466045688E799640B6B2354309
:100840004560C568A543C560CC799C40C3681C431E
:10085000C460521C102AC9D3BDE8F08110B54B0703
:10086000DB0E9A40C90800EB8100016A0F249C400E
:10087000A1430162016A1143016210BD02460020DA
:1008800012690A4200D00120704701837047426913
:100890004A4042617047FEE7FEE7704730B50F23DC
:1008A000C27801250178002A1FD0154A126802F487
:1008B000E062C2F5E062C2F30722C2F10404D34051
:1008C0004278A24084781C401443220101F1E021C7
:1008D00081F80024007800F01F018D40400980005D
:1008E00000F1E020C0F8005130BD01F01F0085404C
:1008F0004809800000F1E020C0F8805130BD0000C0
:100900000CED00E00249084302490860704700000E
:100910000000FA050CED00E0054A002903D011683B
:1009200001431160704711688143116070470000F6
:1009300030380240054A002903D011680143116094
:1009400070471168814311607047000044380240CD
:1009500070B5244B196801F00C01234C00291ED0FE
:10096000661004291DD008291DD00460196801F003
:10097000F00109091D4A545C0168E14041601C68AE
:1009800004F4E054A40A145D21FA04F484601B68A2
:1009900003F460435B0BD25CD140C16070BD046066
:1009A000E4E70660E2E70F4A121F1168C1F38055C1
:1009B000116801F03F0135B1B6FBF1F11468C4F3E1
:1009C0008814614305E0B4FBF1F11468C4F38814A2
:1009D00061431268C2F30142521C5200B1FBF2F1B2
:1009E0000160C3E7083802400024F400140000202E
:1009F000F0B587B001211020FFF79CFF01210846C8
:100A0000FFF78AFF02258DF8185028020590032071
:100A10008DF8190000248DF81A4001268DF81B600E
:100A20002A4F05A93846FFF7DBFE8DF818506902FA
:100A300005918DF81B4005A93846FFF7D1FE072226
:100A400009213846FFF70AFF07220A213846FFF737
:100A500005FF4FF4E1300190ADF810400C20ADF8E7
:100A60000E00ADF80C40ADF80A40ADF80840184D46
:100A700001A9284600F032FA012240F22551284609
:100A800000F011FA25218DF800108DF80360062181
:100A90008DF801108DF802406846FFF7FFFE012136
:100AA000284600F0CDF900226C210A2002F02EFD2C
:100AB000084C206030B1012002F01CFD606000286D
:100AC00001D1FEE7FEE707B0F0BD000000000240E4
:100AD00000100140380000200FB400B599B01BAAE7
:100AE00068461A9900F072FA684600F045F819B0A5
:100AF0005DF814FB30B40446002C08D005480068AB
:100B000028B10A46214630BC002302F035BD30BC76
:100B100000207047380000202DE9F0410446134EB4
:100B200000235A1E1946706802F026FD01281AD1CA
:100B30000F4F2146384600F033FA3C040D4D04E0D7
:100B40002C60BFF34F8FBFF36F8F8021384600F0CA
:100B500083F90028F4D07068BDE8F04100231A46FC
:100B6000194602F037BEBDE8F081000038000020D1
:100B70000010014004ED00E02DE9F0470746DFF8E2
:100B8000609000235A1E1946D9F8040002F0F4FCC4
:100B9000012822D10024DFF84C800507124E10E016
:100BA000404600F0FDF904E03560BFF34F8FBFF31E
:100BB0006F8F8021404600F04FF90028F4D0641C6C
:100BC000E4B2395D0029EBD1D9F80400BDE8F04763
:100BD00000231A46194602F0FDBDBDE8F08700006B
:100BE000380000200010014004ED00E00CB50022A8
:100BF000019200922749086840F4803008604FF461
:100C0000A043086800F4003000900198401C019057
:100C1000009810B901989842F3D10868800302D572
:100C20000120009000E000920098012831D119487D
:100C30004030026842F0805202601748026842F475
:100C4000404202601348083002680260026842F4C1
:100C500000420260026842F4A0520260021F0F4B81
:100C600013600A6842F080720A600A689201FCD53B
:100C70000B4A40F205711160016821F00301016027
:100C8000016841F0020101600168C1F3810102299C
:100C9000FAD10CBD003802400070004008544007F3
:100CA000003C024010B5502080F31188BFF34F8FF5
:100CB000BFF36F8F02F06CFF18B104494FF0805002
:100CC0000860002080F3118810BD000004ED00E0F2
:100CD00010B51248016841F47001016010480168C4
:100CE00041F0010101600E4A0021083211600268E2
:100CF0000C4B1A400260031D0B4A1A60026822F472
:100D00008022026006480C300160FFF76FFF034944
:100D10004FF000608039086010BD000088ED00E0F1
:100D200000380240FFFFF6FE1030002470B59CB082
:100D300000251B953A4E40F22551304600F093F8BD
:100D4000384C01280AD1304600F026F9C2B2217889
:100D500069B1012912D0022922D025704FF45875AB
:100D60002946304600F07FF8012842D04AE0402A68
:100D7000F4D10120207065802571EFE70D2A07D09E
:100D80006188632907D2481C608008190271E5E771
:100D900002202070E2E7A06E401CA0662570DDE70F
:100DA0000A2A04D0A06E401CA0662570D6E762888F
:100DB000D2B1ADF8642002F0E3FE1A906288211DE2
:100DC0006846FFF759FABDF864000DF80050164860
:100DD00000231BAA6946006802F0C8FD012806D05E
:100DE000A06E401CA06602E0A06E401CA0662570AC
:100DF000B4E7318830468188294600F019F8A06EA2
:100E0000401CA0661B98002807D008494FF080506E
:100E10000860BFF34F8FBFF36F8F1CB070BD000031
:100E200000100140B80000203800002004ED00E070
:100E300040F66A120A0A01219140C94301807047B5
:100E4000002904D0818941F4005181817047818952
:100E500021F40051818170470246002012880A4225
:100E600000D00120704770B5002440F66A12C1F32B
:100E7000421301F01F05012606FA05F2012B0CD0E2
:100E8000022B0DD0838A1340090A8E40008830401F
:100E90000BB100B10124204670BD83891340F3E7F4
:100EA000038A1340F0E710B540F66A13C1F342130A
:100EB00001F01F040121A140012B07D0022B07D014
:100EC00014303AB102680A43026010BD0C30F8E7F2
:100ED0001030F6E702688A43026010BD7FB5044611
:100EE0000D46208A20F44051E88808432082A089DA
:100EF00041F20C618843A9882A8911436A89024317
:100F00001143A181A08A20F44071A8890843A082DE
:100F10006846FFF71DFD1E48844202D01D488442EA
:100F200001D1039800E00298A189090408D500EBDB
:100F3000C00101EB001029684900B0FBF1F007E0A7
:100F400000EBC00101EB001029688900B0FBF1F053
:100F50006422B0FBF2F109010B096FF018056B4335
:100F600000EB8300A3891D044FF0320307D503EB88
:100F7000C000B0FBF2F000F00700084306E003EB0E
:100F80000010B0FBF2F000F00F00084320817FBD9D
:100F900000100140001401408088C0F30800704731
:100FA000C1F3080181807047FEE700000FB4054BD4
:100FB00010B503A9044A029800F0ECF810BC5DF8E3
:100FC00014FB0000851A0008B400002037B5144651
:100FD0000846064B6A46214600F0B8F904466946C1
:100FE000002000F04AFD20463EBD00007B1A0008AC
:100FF00002E008C8121F08C1002AFAD170477047E2
:10100000002001E001C1121F002AFBD1704700003F
:101010002DE9FF5F82B00021DDE90430020DDDF82B
:1010200040B0034318D044F61050A2F2FF324243BE
:101030001514119801281FD0A5EB0B00401C5FEA86
:10104000000A4FF000064E4FDFF83891B046504688
:1010500015D5CAF1000413E0119801244AA3012810
:1010600001D16FEA0B010298119AC0E90031C0E981
:10107000024206B0BDE8F09FCBF10000DFE7044676
:101080000021404A491842EB0450CDE9001012E01B
:10109000E00707D032463B4640464946FFF7ECF9A9
:1010A0008046894632463B4610461946FFF7E4F92A
:1010B00006460F466410002CEAD1DDE90401DDE9A3
:1010C0000023BAF1000F06DAFFF7D6F942464B4685
:1010D000FFF7D2F905E0FFF741FA42464B46FFF72A
:1010E0003DFA04460E460022284BFFF7BFFA03D80C
:1010F0004FF0FF30014607E00022254B20463146E5
:10110000FFF713F9FFF799FA102409E0002C0ADB26
:101110000A220023FFF7D8F8039B30321A55641EC9
:1011200050EA0102F2D1641C039AC4F11103144481
:10113000119A012A03D0012208430DD10AE0084385
:1011400004D000204FF0110B119072E7A3EB0B05B8
:101150006D1E0DE05B4504DD4FF0000205F1010559
:1011600004E003DA4FF00002A5F10105002AECD0FB
:1011700002981199C0E90231C0E9004579E7000001
:10118000000014400000F03F300000000000F04379
:101190000000E03F2DE9FF4F8BB09A460F46054611
:1011A000002606E025280BD052460D9990476D1C6D
:1011B000761C28780028F5D10FB03046BDE8F08FB6
:1011C0000024A0460122604900E0044315F8013FD5
:1011D000203B02FA03F00842F7D128782E2817D1D5
:1011E00015F8010F44F004042A280ED06FF02F02E6
:1011F0002878A0F1300109290AD808EB880102EB10
:10120000410100EB01086D1CF2E757F8048B6D1CDF
:10121000287869283ED006DC0028CDD063280BD082
:10122000642804D136E0732810D075284BD052467C
:101230000D999047761C85E017F8040B8DF8000097
:1012400000208DF80100E946012003E057F8049BD7
:101250004FF0FF3061074FF0000401D40AE0641C36
:1012600044450DDA8442FADB19F804100029F6D15E
:1012700006E0641C8442FCDB19F804100029F8D154
:10128000264404E019F8010B52460D999047641E5C
:10129000F8D257E001CF4FF00A0B002802DA4042A3
:1012A0002D2102E0210504D52B218DF824100121E8
:1012B00003E0E10705D02021F7E70DF120090891AF
:1012C0000CE00021F9E701CF4FF00A0BF9E759468E
:1012D000FEF7E4FF01F1300209F8012D0028F6D1F4
:1012E000ADEB090000F1200B600701D44FF00108BD
:1012F000D84502DDA8EB0B0000E00020804600246A
:1013000006E009A85246005D0D999047641C761CC2
:1013100008988442F5DB04E0302052460D9990474E
:10132000761CB8F10001A8F10108F5DC05E019F818
:10133000010B52460D999047761CBBF10001ABF1B1
:10134000010BF4DC6D1C34E7092801002DE9FF4F87
:1013500095B09B468946064600250FE2252877D1A1
:1013600000242746F84A0121059400E0044316F8BA
:10137000013F203B01FA03F01042F7D130782A28D0
:1013800011D06FF02F033078A0F13002092A16D85F
:10139000059A44F0020402EB820203EB420210447D
:1013A000761C0590EFE759F8042B0592002A03DA22
:1013B000504244F40054059044F00204761C307806
:1013C0002E2816D116F8010F44F004042A280DD057
:1013D0006FF02F023078A0F13003092B09D807EB0A
:1013E000870302EB4303C718761CF3E759F8047B25
:1013F000761C30786C280FD006DC4C2817D0682873
:101400000DD06A2814D104E0742810D07A280FD1A6
:101410000DE044F400140AE044F4801401E044F4C4
:1014200040147278824202D104F58014761C761C36
:10143000307866280BD013DC582877D009DC0028D8
:1014400075D04528F6D04628F4D047281AD19DE11A
:1014500018E0632835D0642879D0652812D195E149
:10146000702873D008DC6728F1D069286FD06E2807
:101470000DD06F2806D1B5E073282CD0752875D013
:10148000782874D05A46179990476D1C75E1C4F3BB
:101490000250022809D003280DD0D9F800100428E2
:1014A0000DD00D6009F1040967E1D9F80010EA17C1
:1014B000C1E90052F6E7D9F800100D80F2E70D708F
:1014C000F0E719F8041B8DF8001000208DF80100DA
:1014D000EA46012003E059F804AB4FF0FF30610702
:1014E0004FF0000102D40DE008F101018846B94235
:1014F0000FDA8045F8DB1AF808100029F4D108E06B
:1015000008F1010188468142FADB1AF80810002927
:10151000F6D105985B46A0EB080721463846179A96
:1015200000F094FA284400EB080507E04DE029E1BB
:101530000DE01AF8010B5A4617999047B8F10108C7
:10154000F7D25B4621463846179A13E142E00A2259
:101550000092C4F302524FF0000A022A08D059F850
:1015600004CB032A4FEAEC710AD00DE029E02AE00F
:1015700009F1070121F00702F2E802C1914609E0F2
:101580000FFA8CFC4FEAEC71042A03D14FFA8CFC61
:101590004FEAEC71002907DA0A460021DCF1000C61
:1015A00061EB02012D2202E0220504D52B228DF8E9
:1015B0000420012203E0E20701D02022F7E7904651
:1015C00059E00A2102E010220DE010214FF0000A3C
:1015D00000910BE010224FF0000A44F004040827A9
:1015E000009203E008224FF0000A0092C4F3025276
:1015F000022A05D059F804CB0021032A08D009E0BB
:1016000009F1070121F00702F2E802C1914605E065
:101610001FFA8CFC042A01D10CF0FF0C4FF00008DB
:10162000220728D5702806D0009B83F0100353EAC8
:101630000A0305D00EE040228DF80420012208E0C4
:101640005CEA010206D030228DF804208DF80500F6
:1016500002229046009B83F0080353EA0A030AD152
:101660005CEA010201D1620705D530228DF8042021
:101670004FF001087F1E582804D034A003900EA814
:1016800002900DE036A0F9E753466046009AFEF757
:101690001BFE84460398825C0298401E02900270F2
:1016A0005CEA0100F0D1029806A9081A00F1200AAC
:1016B000600702D524F4803400E00127574502DD9D
:1016C000A7EB0A0000E0002000EB0A01009005985B
:1016D0004144401A0590E00306D45B462146179A20
:1016E000059800F0B3F90544002706E001A85A4622
:1016F000C05D179990476D1C7F1C4745F6DBE003E2
:101700000CD55B462146179A059800F09FF90544D1
:1017100004E030205A46179990476D1C0099481EE6
:1017200000900029F5DC08E0029802995A460078FA
:10173000491C0291179990476D1CBAF10001AAF15A
:10174000010AF1DC65E10000092801003031323383
:1017500034353637383961626364656600000000ED
:1017600030313233343536373839414243444546D7
:101770000000000000F058F90544761C307800287D
:101780007FF4ECAD19B02846BDE8F08F620700D4B5
:10179000062709F1070222F0070CFCE80223E146C4
:1017A00003F000485FEA080C02D00FF2702C0DE045
:1017B0005FEA045C02D50FF2682C07E05FEAC47CA4
:1017C00002D00FF2602C01E0AFF2700C4FF0FF3846
:1017D00023F00043CDF850C065280CD006DC452826
:1017E00009D046281DD047283DD13DE0662818D0B5
:1017F00067287ED138E00021112F01DB112000E0A5
:10180000781CCDE9000106A90EA8FFF701FCDDE96F
:101810000F010E9A03910021009207F1010A049131
:101820004DE04FF000400097CDE9011006A90EA849
:10183000FFF7EEFBDDE90F0203920E9B11990022E8
:10184000DDF80CA00093049211B9791C00EB010A99
:10185000B7EB0A0004D4C0F1FF3007F1010A04908D
:10186000AAEB0700019044E0012F00DA01270021D4
:10187000112F01DD112000E03846CDE9000106A955
:101880000EA8FFF7C5FBDDE90F010E9A03910021B9
:1018900004910092BA4621070CD40399514500DA0D
:1018A0008A46BAF1010F05DD009AAAF10101515CE7
:1018B000302908D0B84202DA10F1040F06DA01210B
:1018C000CDE9011015E0AAF10101E9E7002805DCE6
:1018D000049901440491AAEB000102E0411C514526
:1018E00000DD8A460499401A401C01904FF00040E8
:1018F0000290200704D40198504501DBCDF8048004
:1019000000208DF84F0002980DF14F07B0F1004F05
:1019100025D02B200E9002984FF0020800280CDAF8
:10192000404202902D200E9007E00A210298FEF717
:10193000B5FC3031029007F8011DB8F10001A8F1A3
:101940000108F2DC02980028EFD1791E0E98087089
:10195000307800F0200040F0450007F8020D12A892
:10196000C01B00F107081498007800B1012000EBBB
:101970000A01019801EBE07105984144401A401EAC
:101980000590E00306D45B462146179A059800F0BF
:101990005DF805441498007818B15A461799904795
:1019A0006D1CE00324D55B462146179A059800F08C
:1019B0004DF805441CE00498002807DBDDE903012D
:1019C000884203DD0098405C179901E017993020A8
:1019D0005A469047049805F10105401C049001986F
:1019E000401E019004D12E205A46179990476D1C35
:1019F000BAF10001AAF1010ADDDC05E017F8010BDC
:101A00005A46179990476D1CB8F10001A8F10108DA
:101A1000F4DC5B462146179A0598ABE62D000000E2
:101A20002B000000200000002DE9F04104460025B5
:101A30001E461746880404D405E039462020B047E6
:101A40006D1C641EF9D52846BDE8F0812DE9F041F2
:101A5000044600251E469046C80301D5302700E005
:101A60002027880404D505E041463846B0476D1C60
:101A7000641EF9D52846BDE8F0810A68531C0B6046
:101A80001070704710B50446E0B2FFF745F82046E5
:101A900010BD000010B510210948FEF7EFFE50B14F
:101AA000002401210748FEF7E9FE012805D00020A7
:101AB0002044C0B210BD0124F3E70220F8E7000083
:101AC00000100240000002401CB501211020FEF76A
:101AD00023FF1020009000248DF805408DF804406D
:101AE00069460948FEF77CFE01210846FEF714FF0F
:101AF000012000908DF8054002208DF80400694611
:101B00000248FEF76DFE1CBD0010024000000240BE
:101B10001CB501211020FEF7FFFE6020009002207E
:101B20008DF8050001208DF8040000218DF80610C5
:101B30008DF80700044C69462046FEF751FE6021EF
:101B40002046FEF7A2FE1CBD001002401CB5FFF7A8
:101B5000BFF84FF44070FEF7D5FE01F03BFB184C88
:101B6000606001F037FBA06001F034FBE06000250D
:101B70000620CDE900052B46802212A1154801F070
:101B8000BBFF0520CDE900050023802212A11548E6
:101B900001F0B2FF14480090002301224FF47A7143
:101BA00012A002F0EBF9206101F0E4FF024600957B
:101BB00000230121206902F035FA01F02DFAFEE739
:101BC00024000020486172647761726520496E6963
:101BD00074000000D5270008496E697420546173B1
:101BE0006B000000FD270008C531000850657269D0
:101BF0006F64696354696D65720000002DE9F041FE
:101C000004460F46174EF5683068001D00F086FD4B
:101C100038B9306890F82C10012088403169814330
:101C20003161601C07D137B13168BDE8F041091D51
:101C30000D4800F08DBE2C4430684460AC4206D2A2
:101C40003168B06B091DBDE8F04100F069BE316834
:101C5000706B091D00F064FEB06A844200D2B46269
:101C6000BDE8F081400000204404002070B5044627
:101C700000F07AFE1C4DA868401CA860286810B1CE
:101C8000686938B10CE02C60A868012808D100F020
:101C9000D5F905E02868E16AC06A884200D82C605E
:101CA000686A401C6862E06A01212A698140114328
:101CB00029610E4900EB800001EB8000211D00F03E
:101CC00047FE00F08DFE686900280CD02868E16AA4
:101CD000C06A884207D206494FF080500860BFF3BF
:101CE0004F8FBFF36F8F70BD400000207401002044
:101CF00004ED00E010B500F037FE0E4C2068A0B9EE
:101D00000D4800F0FFFD0C48143000F0FBFD0A48C0
:101D1000E06014302061002210210A2001F0F6FB5F
:101D2000206010B105A100F033FFBDE8104000F0C5
:101D300057BE00007C00002058040020546D7251F2
:101D40000000000070B5124E124D1CE001F0B2F917
:101D5000306820B1002402F097F8A4B901E0012412
:101D6000F9E700F001FEF068C468201D00F0D6FC21
:101D7000A868401EA8606868401E686000F030FED9
:101D8000204600F054F868680028DFD170BD0000DC
:101D9000300400204000002030B40B46026C002AC2
:101DA0000CD0C1681144C1604468A14201D30168EC
:101DB000C160C16830BC1846FEF75EBA30BC7047DF
:101DC0002DE9F041044617460026A56B226C002A37
:101DD00010D0C7B1E068FEF74FFAE168206C091A2D
:101DE000E1602268914202D26168081AE060022F25
:101DF00016D017E02068A8B9606801F043FF0646D6
:101E0000002060600EE0A068FEF736FA216CA06842
:101E10000844A0606168884204D32068A06001E0A3
:101E200005B16D1E6D1CA5633046BDE8F08110B58F
:101E30000446206B00F008FE2046BDE8104000F08C
:101E400003BE00000749CA681168002904D00021B8
:101E5000016019B1002070470121F9E7D0680068DE
:101E6000704700007C0000204FF410410F484207EB
:101E700006D0C01D20F007000C49411AC1F51041E1
:101E80000B4A1060002353600144083921F0070118
:101E9000103A11604B600B600B1A436001604068A0
:101EA000906050604FF00040D06070478004002088
:101EB000AC000020074E4FF08054074DFFF742FF63
:101EC00030680128FAD92C60BFF34F8FBFF36F8FB2
:101ED000F4E700007401002004ED00E0002808D0C1
:101EE000002141600160C16000231A46194601F0DB
:101EF00071BC704710B5029C002909D02260E063D4
:101F000021640121204601F00BFC0020A06410BDDB
:101F10002460F4E72DE9F047DDE908580A9C814682
:101F20000E469A46206B521E00EB820020F00707F7
:101F3000780705D040F22B3219A120A0FFF736F820
:101F400000202218315C82F83410315C11B1401C41
:101F50001028F6D3002684F84360202D00D31F25D7
:101F6000E5626564A664201D00F0D7FC04F118004A
:101F700000F0D3FC2461C5F12000A0616462E66436
:101F800084F8506052464946384600F0B5FB206060
:101F9000B8F1000F01D0C8F80040BDE8F08700009C
:101FA0002E2E5C2E2E5C4672656552544F535C7328
:101FB00072635C7461736B732E6300004572726FA1
:101FC000723A25732C25640D0A0000002DE9F047B4
:101FD000DDE9089406460D4617469846002D05D1C2
:101FE0004FF4C6720AA111A0FEF7E0FF002C0DD03D
:101FF000FFF780FE2660A561E761C4F82080C4F881
:102000002490201DBDE8F04700F087BCBDE8F087B4
:102010002E2E5C2E2E5C4672656552544F535C73B7
:1020200072635C74696D6572732E63004572726FC2
:10203000723A25732C25640D0A00000070B5002447
:10204000114D04EB840005EB800000F05BFC641C88
:10205000202CF6D30D4800F055FC0C48143000F04D
:1020600051FC0A48283000F04DFC08483C3000F094
:1020700049FC0648503000F045FC054803494163DF
:102080001431816370BD000074010020F40300204E
:102090004000002030B5134900E011460A68824232
:1020A000FBD34B685C18844203D1406818444860F5
:1020B00008460D6844682318AB420DD1094B103B0C
:1020C0001B689A4206D05268224442600A6812682D
:1020D000026002E0036000E00260814200D008601C
:1020E00030BD0000AC00002070B5002441600061EC
:1020F0000C4D91420AD8D11A8269914201D3012430
:102100000EE0011D286900F00BFC09E09A4203D2A1
:10211000994201D3012403E0011DE86800F000FCAE
:10212000204670BD7C00002010B5044600F01CFC69
:10213000A06B20B1002400F053FC204610BD012408
:10214000F9E710B5044600F00FFCA06BE16B884284
:1021500001D1012400E0002400F042FC204610BD23
:102160002DE9F3410F460098846C0026002C05D120
:1021700040F6CE1216A11DA0FEF718FFA06BE16B72
:10218000884205D340F6CF1211A118A0FEF70EFF2A
:10219000A06BE16B88420CD294F945503A466946EF
:1021A0002046FFF70DFE0646681C05D06D1C84F81E
:1021B00045503046BDE8FC81606A0028F9D004F142
:1021C000240001F0BDFD0028F3D00126F1E7000056
:1021D0002E2E5C2E2E5C4672656552544F535C73F6
:1021E00072635C71756575652E6300004572726F70
:1021F000723A25732C25640D0A000000F8B50546D7
:102200000E461348C068C068C468201D00F086FAF6
:10221000E069012816D1A0692B46411932462046B3
:10222000FFF762FF70B100200346014600902A4686
:10223000204601F0F7FE28B94FF4027205A10CA068
:10224000FEF7B4FE616A01B02046BDE8F0400847E1
:102250007C0000202E2E5C2E2E5C4672656552544A
:102260004F535C7372635C74696D6572732E6300A7
:102270004572726F723A25732C25640D0A000000B6
:1022800070B586B02F4E53E00298002803DADDE9DE
:102290000320059990470298002849DB049C606957
:1022A00010B1201D00F03AFA01A800F0ABF8054685
:1022B00002980A283CD2DFE800F00505053B2738E4
:1022C00005053B270398A169034601442A46204699
:1022D000FFF70AFF00282BD0616A20468847E06993
:1022E000012825D1002000900398A16900234218FD
:1022F0001946204601F096FED0B940F2213212A1D3
:1023000018A0FEF753FE13E00398A06128B94FF41C
:102310004E720DA113A0FEF749FEA0692B4641198C
:102320002A462046FFF7E0FE02E0204600F08CFB44
:1023300000231A4602A9306801F01EF90028A3D133
:1023400006B070BD7C0000202E2E5C2E2E5C4672E6
:10235000656552544F535C7372635C74696D65724A
:10236000732E63004572726F723A25732C25640DCB
:102370000A000000F8B506460D4600F09BFE6846D0
:1023800000F040F80446009810B101F07DFDF8BD62
:1023900045B9A64206D801F077FD21463046FFF741
:1023A0002DFFF8BD0C481DB10169096891B10025E8
:1023B000311B2A46006800F0FDFB01F065FD002896
:1023C000EFD106494FF080500860BFF34F8FBFF345
:1023D0006F8FF8BD0125EBE77C00002004ED00E0E5
:1023E0000748416B0968002905D0416BC968C96875
:1023F0004968816270474FF0FF3181627047000089
:102400004000002070B5054601F0B4FB0446074EBD
:10241000B068844204D200F00BF80120286001E08B
:1024200000202860B460204670BD00007C000020C1
:10243000F8B5184E25E0C0680568C468201D00F096
:102440006DF9616A20468847E069012819D1A069C1
:102450002844A84206D960602461211DF06800F07C
:102460005FFA0EE000200346014600902A4620460F
:1024700001F0D8FD28B940F2923207A10DA0FEF775
:1024800095FDF06801680029D5D1F0683169F160E7
:102490003061F8BD7C0000202E2E5C2E2E5C467232
:1024A000656552544F535C7372635C74696D6572F9
:1024B000732E63004572726F723A25732C25640D7A
:1024C0000A00000008484068401C05D040F20F1286
:1024D00006A111A0FEF76AFD502080F31188BFF31A
:1024E0004F8FBFF36F8FFEE7900000202E2E5C2EE3
:1024F0002E5C4672656552544F535C706F72745C0B
:10250000525644535C41524D5F434D34465C706FAC
:1025100072742E63000000004572726F723A257368
:102520002C25640D0A00000003460020002A03D079
:10253000994300D1012070470B42FCD00120704725
:1025400008B56846FFF77EFC0099FFF713FFFFF719
:1025500097FEF6E72DE9F041044600F005FA94F9FC
:10256000455004F1240613E0A06C38B10021204648
:10257000FFF7F6FD50B100F03BFC07E0606A48B1A0
:10258000304601F0DDFB08B100F032FC6D1E6DB28B
:10259000002DE9DC4FF0FF3684F8456000F020FAAA
:1025A00000F0E2F994F9445004F1100709E02069C1
:1025B00048B1384601F0C4FB08B100F019FC6D1EAB
:1025C0006DB2002DF3DC84F84460BDE8F04100F00A
:1025D00007BA00002DE9F0410546002600F06AFD2B
:1025E000304F386808B9FFF73FFCF86805424BD117
:1025F00075B1083568070BD005F00700C0F1080079
:102600000544680704D0BF2227A131A0FEF7CEFC05
:10261000002D39D07868854236D8224910310846D5
:10262000046801E0214604466068A84202D220689E
:102630000028F7D13868844226D00E680836206812
:1026400008606068401B102811D904EB05085FEA98
:10265000487004D0EC2214A11DA0FEF7A7FC60680E
:10266000401BC8F8040065604046FFF713FD616831
:102670007868401A7860BA68904200D2B860F8680A
:10268000014361600020206001F0FEFB700705D06F
:102690004FF4967204A10EA0FEF788FC3046BDE808
:1026A000F08100009C0000202E2E5C2E2E5C4672D5
:1026B000656552544F535C706F72745C4D656D4D1F
:1026C000616E675C686561705F342E6300000000B6
:1026D0004572726F723A25732C25640D0A00000052
:1026E00004490868002803D00868826C521C826480
:1026F000086870474000002024384FF08073036260
:1027000021F00101C1610449816142606FF0020161
:1027100040F8201970470000C52400080169D0E97D
:1027200001329A60D0E901235A604A68824201D19D
:1027300082684A60002202610868401E0860704793
:102740000449086880690A680968D26AC2F12002EF
:102750008A617047400000202DE9F0410646341D93
:1027600000F0A8FC04F1080540F27D274FF0007846
:102770000BE0E068A84204D13A4609A111A0FEF797
:1027800015FC4146E06801F02DFB20680028F0D1DF
:10279000304600F059F9BDE8F04101F075BB00008A
:1027A0002E2E5C2E2E5C4672656552544F535C7320
:1027B00072635C6576656E745F67726F7570732E99
:1027C000630000004572726F723A25732C25640D08
:1027D0000A00000010B5FFF79BF9FFF775F9FEF747
:1027E00007F905480121406800F002FDBDE81040EE
:1027F000002000F093BA0000240000207CB5204D9A
:102800004FF0FF30012300901A461946686800F027
:1028100055FDC00729D028460121CDE9001000232D
:10282000802218A11A4801F067F900240220CDE99E
:1028300000042346802217A1194801F05DF9032006
:10284000CDE900040023802216A1194801F054F9B3
:102850000420CDE900048201002316A1194801F0EB
:102860004BF919A0FEF788F902E020A0FEF784F9E1
:102870006868FFF771FFBDE87C40002000F04EBAA9
:10288000240000204C4544205461736B000000007C
:10289000FD2B00084C454420436F6E74726F6C0032
:1028A000312C00084B6579205363616E00000000F5
:1028B0006D2C0008554152542050726F636573733C
:1028C000000000004D310008CFB5CDB3B3F5CABC50
:1028D000BBAFCDEAB3C9A3ACD3A6D3C3C8CECEF1A8
:1028E000D2D1C6F4B6AF0D0A00000000B4EDCEF3AD
:1028F000A3BAD3B2BCFEB3F5CABCBBAFB3ACCAB1CA
:102900000D0A000000F1080141604FF0FF328260C3
:10291000C1600161002101607047002101617047C1
:1029200030B50C68621C02D000F1080202E00269B6
:1029300004E01A4653681D68A542FAD953684B60F3
:1029400099608A60516008610168491C016030BD6E
:1029500042684A6093688B6093685960916008612F
:102960000168491C01607047502080F31188BFF353
:102970004F8FBFF36F8F09494868401C486001289A
:102980000AD10748006810F0FF0F05D040F2B912D5
:1029900004A10FA0FEF70ABB7047000090000020C2
:1029A00004ED00E02E2E5C2E2E5C467265655254BE
:1029B0004F535C706F72745C525644535C41524D7D
:1029C0005F434D34465C706F72742E6300000000EC
:1029D0004572726F723A25732C25640D0A0000004F
:1029E00010B5094C6068002805D14FF4E07207A1CA
:1029F00011A0FEF7DBFA6068401E6060002801D17C
:102A000080F3118810BD0000900000202E2E5C2E57
:102A10002E5C4672656552544F535C706F72745CE5
:102A2000525644535C41524D5F434D34465C706F87
:102A300072742E63000000004572726F723A257343
:102A40002C25640D0A00000070B500282AD0083833
:102A50000446154D6068E968084205D14FF4A0723C
:102A600012A11CA0FEF7A2FA206828B140F2411280
:102A70000EA118A0FEF79AFA6068E968084211D022
:102A80002268002A0ED18843606000F013FB606862
:102A90006968084468602046FFF7FCFABDE87040AA
:102AA00001F0F2B970BD00009C0000202E2E5C2EBB
:102AB0002E5C4672656552544F535C706F72745C45
:102AC0004D656D4D616E675C686561705F342E6346
:102AD000000000004572726F723A25732C25640D58
:102AE0000A00000006484FF47A710068B0FBF1F16B
:102AF0004FF0E020491E416107210161704700004D
:102B00000000002010B5FDF7A1FB104C10280CD3DD
:102B100000F1E02090F8F0032178884205D24FF4CC
:102B200040720BA115A0FEF741FA18480068A16891
:102B300000F4E060884207D9BDE810404FF44472C9
:102B400003A10EA0FEF732BA10BD000090000020D5
:102B50002E2E5C2E2E5C4672656552544F535C706F
:102B60006F72745C525644535C41524D5F434D3416
:102B7000465C706F72742E63000000004572726FC5
:102B8000723A25732C25640D0A0000000CED00E05C
:102B900010B50022064B53F832401CB1521C0A2AD1
:102BA000F9D310BD43F8321003EBC201486010BDE9
:102BB0002401002070B504460D461646FFF7D4FEEA
:102BC00094F944304FF000005B1C01D184F84400BC
:102BD00094F94510491C01D184F84500FFF700FF26
:102BE000A06B28B93246294604F1240000F036F9DA
:102BF0002046BDE87040FFF7ADBC000008B50A4CA8
:102C00000A4E4FF0FF354FF47A77012300951A46AC
:102C10001946E06800F052FB40213046FDF737FED0
:102C2000384600F03FF8F0E7240000200010024092
:102C300008B50C4C0C4E4FF0FF354FF47A7701235A
:102C400000951A460F21A06800F038FB202130467D
:102C5000FDF71DFE384600F025F80121E06800F080
:102C6000C7FAECE7240000200010024000240C4EBC
:102C70002546FEF70FFF044624EA0500012802D08E
:102C8000022805D008E00221B06800F0B1FA03E0A4
:102C90000421B06800F0ACFA0A2000F003F8E7E77E
:102CA0002400002010B504460020002C10D00E484F
:102CB000006B28B140F2CF420CA113A0FEF776F9C9
:102CC00000F0F8F900212046FEF798FF01F0DCF84B
:102CD000002807D110494FF080500860BFF34F8F94
:102CE000BFF36F8F10BD0000400000202E2E5C2E21
:102CF0002E5C4672656552544F535C7372635C740C
:102D000061736B732E6300004572726F723A2573A4
:102D10002C25640D0A00000004ED00E070B50446A7
:102D2000FFF722FE234D04B92C68201DFFF7F6FCA7
:102D300058B9E06A204A00EB800152F8211021B90D
:102D400001218140286988432861A06A18B104F1F3
:102D50001800FFF7E3FC686A401C68622868844238
:102D600007D1211D1548FFF7F3FD6868401C686016
:102D700007E0A868401EA8602046FFF758F8FFF754
:102D80002FFBFFF72DFE6869002812D028688442C7
:102D90000FD1286B28B140F2654209A10FA0FEF7C0
:102DA00005F912494FF080500860BFF34F8FBFF311
:102DB0006F8F70BD4000002074010020300400209F
:102DC0002E2E5C2E2E5C4672656552544F535C73FA
:102DD00072635C7461736B732E6300004572726F73
:102DE000723A25732C25640D0A00000004ED00E002
:102DF00001490120C86170474000002070B50446B9
:102E00000D46002C05D140F6063208A10EA0FEF7B3
:102E1000CDF81148016820461831FFF781FD28469A
:102E2000BDE870400121FEF7E9BE00002E2E5C2EA9
:102E30002E5C4672656552544F535C7372635C74CA
:102E400061736B732E6300004572726F723A257363
:102E50002C25640D0A0000004000002070B50646D5
:102E60000D461446002E05D140F6313209A110A0BE
:102E7000FEF79CF81248016830461831FFF768FDEC
:102E80000CB14FF0FF3521462846BDE87040FEF7F3
:102E9000B5BE00002E2E5C2E2E5C46726565525427
:102EA0004F535C7372635C7461736B732E630000C9
:102EB0004572726F723A25732C25640D0A0000006A
:102EC000400000202DE9F04105460E461746002D32
:102ED00005D140F617320EA114A0FEF767F8174C83
:102EE000206B28B940F61B3209A110A0FEF75EF84E
:102EF000216846F000408861216828461831FFF7B4
:102F000027FD3846BDE8F0410121FEF777BE0000FD
:102F10002E2E5C2E2E5C4672656552544F535C73A8
:102F200072635C7461736B732E6300004572726F21
:102F3000723A25732C25640D0A0000004000002021
:102F400070B50446002839D01D4DE06A2968C96A69
:102F5000884233D2A069002804DB2868C06AC0F127
:102F60002000A061E06A174E00EB8000616906EB6B
:102F7000800081421FD1201DFFF7D0FB012150B9F5
:102F8000E06A00EB800256F8222022B92A6901FA91
:102F900000F082432A612868C06AE0622A698140A1
:102FA0001143296100EB800006EB8000211DBDE884
:102FB0007040FFF7CDBC2868C06AE06270BD0000B9
:102FC000400000207401002010B50446002C05D1FB
:102FD00040F6C13204A10BA0FDF7E8FF0D48016ADD
:102FE0002160C068606010BD2E2E5C2E2E5C467283
:102FF000656552544F535C7372635C7461736B7399
:103000002E6300004572726F723A25732C25640D91
:103010000A000000400000201CB517480024CDE93C
:1030200000402346802215A1164800F065FD0128C6
:1030300001D100F0BBFF01280AD0401C1BD102B017
:1030400040F28472BDE810400FA116A0FDF7AEBF9C
:10305000502080F31188BFF34F8FBFF36F8F064866
:103060004FF0FF312C38816201214161C460BDE81D
:103070001C4000F0B7B91CBD6C00002049444C4511
:1030800000000000B51E00082E2E5C2E2E5C46723D
:10309000656552544F535C7372635C7461736B73F8
:1030A0002E6300004572726F723A25732C25640DF1
:1030B0000A0000000248016B491C016370470000D0
:1030C0004000002070B5144D286B002802D001206C
:1030D000E86170BD0020E8612869B0FA80F0C0F1B5
:1030E0001F000E4E00EB800456F8240028B940F66D
:1030F000F6220BA111A0FDF759FF06EB84004168F1
:103100004968416000F10802914201D1496841607B
:103110004068C068286070BD400000207401002035
:103120002E2E5C2E2E5C4672656552544F535C7396
:1031300072635C7461736B732E6300004572726F0F
:10314000723A25732C25640D0A0000009CB00C4CCB
:103150004FF0FF35294601A8FDF7CCFC012803D02C
:1031600008A0FDF709FDF5E70121A06800F040F88F
:10317000BDF8682001A90AA0FDF7AEFCEAE700004F
:1031800024000020B4EDCEF3A3BAB4AEBFDACAFD7A
:10319000BEDDB0FCBDD3CAD5CAA7B0DC0D0A0000A5
:1031A000CAD5B5BDB4AEBFDAC3FCC1EE3A202573B3
:1031B0002C20CAFDBEDDB3A4B6C83A2025640D0A92
:1031C0000000000002480821806800F011B80000EB
:1031D0002400002010B51820FFF7FCF9044624B1A4
:1031E00000202060201DFFF78DFB204610BD000051
:1031F0002DE9F041884600250446002805D140F21B
:103200001D2221A129A0FDF7D1FE5FEA186005D09B
:1032100040F21E221CA125A0FDF7C8FE261D06F1C6
:103220000807FFF747FFF068216841EA08012160BD
:1032300020E046680168002201F07F4321F07F41D1
:103240005FEA431C06D4D4F800C01CEA010F07D083
:10325000012205E0D4F800C031EA0C0C00D10122B3
:103260003AB1DA0100D50D43216841F0007100F058
:10327000B9FD3046B842DCD12068A843206000F098
:1032800003FE2068BDE8F0812E2E5C2E2E5C467277
:10329000656552544F535C7372635C6576656E74FA
:1032A0005F67726F7570732E630000004572726FF6
:1032B000723A25732C25640D0A0000002DE9F047B1
:1032C000089F0D469046994604460026002805D1E1
:1032D00040F24D1235A13EA0FDF768FE280E05D044
:1032E0004FF4A77231A13AA0FDF760FE2DB940F26C
:1032F0004F122EA136A0FDF759FE00F02DFC30B97B
:103300002FB14FF4A97229A131A0FDF74FFEFFF7AD
:10331000D1FED4F800A04A4629465046FFF704F9EA
:1033200040B156460027B8F1000F15D02068A843D9
:10333000206011E0AFB1B8F1000F01D04FF08076FE
:10334000B9F1000F01D046F0806645EA06013A4621
:10335000201DFFF7B7FD002600F096FD1FB310B14A
:1033600009E05646F8E71E494FF080500860BFF369
:103370004F8FBFF36F8FFFF7E3F90646B00110D40C
:10338000FFF7F2FA26684A4629463046FFF7CCF89E
:1033900028B1B8F1000F02D02068A8432060FFF7E1
:1033A0001FFB26F07F463046BDE8F0872E2E5C2EB0
:1033B0002E5C4672656552544F535C7372635C6554
:1033C00076656E745F67726F7570732E63000000B0
:1033D0004572726F723A25732C25640D0A00000045
:1033E00004ED00E01CB52F4C20682F49884205D120
:1033F00040F259122DA138A0FDF7D8FD20682A49C6
:10340000491E884205D14FF4AD7228A132A0FDF7C4
:10341000CDFD354C20780190FF2020702078009061
:103420009DF800009DF8001000F0F000884205D0E3
:1034300040F273121DA128A0FDF7B8FD9DF8000011
:103440002A4A00F0500010700720906006E0906853
:10345000401E90609DF80000400000909DF8000024
:103460000006F4D4107A000200F4E0609060019845
:1034700020700C482030016841F47001016001683F
:1034800041F070410160FFF72DFB00205060FCF718
:10349000A5FE1748016841F040410160FCF78EFE2F
:1034A00000201CBD00ED00E071C20F412E2E5C2EED
:1034B0002E5C4672656552544F535C706F72745C3B
:1034C000525644535C41524D5F434D34465C706FDD
:1034D00072742E63000000004572726F723A257399
:1034E0002C25640D0A00000000E400E0900000209C
:1034F00034EF00E010B502460021012000F006F88C
:1035000004462046FEF7EAFC204610BDF8B5054605
:103510000E461746002D05D14FF4C4720BA112A020
:10352000FDF744FD86B105FB06F04C30FFF752F87D
:1035300004463CB104F14C023B4631462846009417
:10354000FEF7D8FC2046F8BD0020EEE72E2E5C2EBC
:103550002E5C4672656552544F535C7372635C71A6
:10356000756575652E6300004572726F723A25733A
:103570002C25640D0A0000002DE9FF4F83B004469E
:103580008A469B460026002C05D140F2DC4258A119
:103590005EA0FDF70BFDBAF1000F07D1206C28B13A
:1035A00040F2DD4252A159A0FDF700FD00F0D4FA2F
:1035B00038B9059828B14FF49C624DA153A0FDF78E
:1035C000F5FC4FF000094FF08057DFF85081FFF70E
:1035D000CBF9A56B95B3E66851462046FEF7DCFBB8
:1035E000BBF1000F13D0E660606A50B104F1240013
:1035F00000F0A6FB28B1C8F80070BFF34F8FBFF3EF
:103600006F8FFFF7EDF9012007B0BDE8F08F6D1E59
:10361000A563206810B9FFF763F86060206900288F
:10362000EFD004F1100000F08BFB0028E9D0C8F8BF
:103630000070BFF34F8FBFF36F8FE2E7FFE705988E
:1036400008B126B107E0FFF7CBF90020DCE701A8BD
:10365000FFF7BAFC0126FFF7C3F9FFF72BFDFFF7D1
:1036600083F994F94400401C01D184F8449094F902
:103670004500401C01D184F84590FFF7B1F905A938
:1036800001A800F0EDF958B12046FEF763FF00F005
:10369000FBFB2046FEF748FD002898D00020B3E74A
:1036A0002046FEF741FDE0B1206830B9FFF75CF934
:1036B0006068FFF745FCFFF793F904F124000599D2
:1036C000FFF79CFB2046FEF745FF00F0DDFB0028DE
:1036D0007FF47DAFC8F80070BFF34F8FBFF36F8FDB
:1036E00075E72046FEF736FF00F0CEFB6FE70000DF
:1036F0002E2E5C2E2E5C4672656552544F535C73C1
:1037000072635C71756575652E6300004572726F3A
:10371000723A25732C25640D0A00000004ED00E0C8
:1037200070B504460D46002C05D140F21B121DA1B8
:1037300023A0FDF73BFCFFF717F9D4E90F20216820
:1037400002FB001161600021A1632168A160E06BB0
:103750002268216C401E00FB0121E1604FF0FF3028
:1037600084F8440084F8450004F110004DB1FFF7DF
:10377000C9F804F12400FFF7C5F8FFF731F901207B
:1037800070BD21690029F8D000F0DAFA0028F4D0E1
:103790000F494FF080500860BFF34F8FBFF36F8F1A
:1037A000EBE700002E2E5C2E2E5C467265655254AF
:1037B0004F535C7372635C71756575652E630000B1
:1037C0004572726F723A25732C25640D0A00000051
:1037D00004ED00E02DE9FF4782B004468A46984692
:1037E0000025002C05D140F2D92254A15AA0FDF7A2
:1037F000DDFBBAF1000F07D1206C28B140F2DA22CC
:103800004EA155A0FDF7D2FBB8F1020F08D1E06B35
:10381000012805D040F2DB2248A14FA0FDF7C6FBEE
:1038200000F09AF938B9049828B140F2DE2243A199
:1038300049A0FDF7BBFB4FF000094FF080564A4FFF
:10384000FFF792F8A06BE16B884206D3B8F1020F44
:1038500003D0049860B37DB333E04246514620461E
:10386000FEF7AEFAA16C51B141462046FEF778FC56
:10387000C0B13E60BFF34F8FBFF36F8F12E0616A3C
:1038800051B104F1240000F05BFA58B13E60BFF37F
:103890004F8FBFF36F8F05E020B13E60BFF34F8FB6
:1038A000BFF36F8FFFF79CF8012006B0BDE8F087EB
:1038B000FFF796F80020F8E7FFE76846FFF784FB7C
:1038C0000125FFF78DF8FFF7F5FBFFF74DF894F9A9
:1038D0004400401C01D184F8449094F94500401CF8
:1038E00001D184F84590FFF77BF804A9684600F001
:1038F000B7F830B12046FEF72DFE00F0C5FA0020E3
:10390000D3E72046FEF71DFC88B104F110000499AE
:10391000FFF774FA2046FEF71DFE00F0B5FA002806
:103920008ED13E60BFF34F8FBFF36F8F88E7204685
:10393000FEF710FE00F0A8FA82E700002E2E5C2EA3
:103940002E5C4672656552544F535C7372635C71B2
:10395000756575652E6300004572726F723A257346
:103960002C25640D0A00000004ED00E02DE9F0476D
:103970000446894615469846002C05D140F29F32F0
:103980002CA133A0FDF712FBB9F1000F07D1206C79
:1039900028B14FF4687227A12DA0FDF707FBB8F1FD
:1039A000020F08D1E06B012805D040F2A13221A11D
:1039B00027A0FDF7FBFAFFF7A5F85020EFF31187DA
:1039C00080F31188BFF34F8FBFF36F8FA06BE16B54
:1039D000884207D3B8F1020F04D0002087F3118882
:1039E000BDE8F08794F94560424649462046FEF717
:1039F000E7F9701C04D0761C84F845600120EDE7DF
:103A0000A06C012648B141462046FEF7A9FB0028DC
:103A1000F4D0002DF2D02E60F0E7606A0028EDD0DF
:103A200004F1240000F08CF90028E7D0002DE5D047
:103A30002E60E3E72E2E5C2E2E5C46726565525496
:103A40004F535C7372635C71756575652E6300001E
:103A50004572726F723A25732C25640D0A000000BE
:103A600070B504460D46002C05D140F6CB3216A1A8
:103A70001CA0FDF79BFA2DB940F6CC3212A119A07B
:103A8000FDF794FAFEF770FF1A4AD06829684B1CBC
:103A900008D02368126A934206D06268824203D833
:103AA00001240DE000240BE06268801A884206D2EF
:103AB000081A28602046FFF787FA002400E0012456
:103AC000FEF78EFF204670BD2E2E5C2E2E5C4672B9
:103AD000656552544F535C7372635C7461736B73AE
:103AE0002E6300004572726F723A25732C25640DA7
:103AF0000A000000400000202DE9FF5F8146DDE95B
:103B00000E788A4616469B46B000FEF763FD0546D2
:103B100028000AD05420FEF75DFD04460CB1256351
:103B200004E02846FEF790FF00E000248CB100205E
:103B3000CDE90240CDE900785B4632465146484621
:103B4000FEF7E8F92046FEF791F8012004B0BDE841
:103B5000F09F4FF0FF30F9E705484169002903D095
:103B6000006B18B100207047012070470220704799
:103B7000400000200148C06870470000400000205D
:103B800010B5FEF7BFFF0148C06810BD400000201F
:103B90002DE9F04100262E4F386B002808D0B86977
:103BA000401CB861F86900B101263046BDE8F081DB
:103BB000FD686D1CFD608DB9786B006828B140F61A
:103BC000D91224A12AA0FDF7F1F9786BB96B7963BA
:103BD000B863386A401C3862FEF702FCB86ADFF846
:103BE000A08085420DD3786B006838B1786BC068CF
:103BF000C468606885420ED2B86202E04FF0FF30C0
:103C0000B8623868C06A00EB800058F820000128CC
:103C1000C8D90126C6E7201DFEF780FDA06A18B1AD
:103C200004F11800FEF77AFDE06A01213A6981404B
:103C30001143396100EB800008EB8000211DFEF785
:103C400087FEE06A3968C96A8842CCD30126CAE790
:103C5000400000202E2E5C2E2E5C4672656552546C
:103C60004F535C7372635C7461736B732E630000FB
:103C70004572726F723A25732C25640D0A0000009C
:103C80007401002070B50446002600283CD01F4D6A
:103C90002868844205D040F6C7621DA123A0FDF725
:103CA00085F9A06C28B940F6C96219A11FA0FDF7DB
:103CB0007DF9A06C401EA064626CE16A914223D041
:103CC00010BB201DFEF72AFD1C4A012150B9E06AF5
:103CD00000EB800352F8233023B92B6901FA00F07E
:103CE00083432B61606CE062C0F12000A061E06A58
:103CF0002B6981401943296100EB800002EB8000B1
:103D0000211DFEF725FE0126304670BD4000002033
:103D10002E2E5C2E2E5C4672656552544F535C739A
:103D200072635C7461736B732E6300004572726F13
:103D3000723A25732C25640D0A00000074010020DE
:103D40002DE9F041C068C468002C05D140F661320D
:103D500016A11DA0FDF72AF904F118000746FEF789
:103D6000DDFC1D4D2A6B012662B139461B48FEF76A
:103D7000EFFDE06A2968C96A884215D90120EE6121
:103D8000BDE8F081201DFEF7C9FCE06A2A6906FA49
:103D900000F111432961124900EB800001EB800022
:103DA000211DFEF7D5FDE4E70020E9E72E2E5C2E6D
:103DB0002E5C4672656552544F535C7372635C743B
:103DC00061736B732E6300004572726F723A2573D4
:103DD0002C25640D0A000000400000201C04002077
:103DE0007401002070B506460C461A4D286B002859
:103DF00005D140F6993218A11EA0FDF7D7F844F07E
:103E000000403060F4682CB940F6A13212A119A02C
:103E1000FDF7CCF83046FEF781FC201DFEF77EFC56
:103E2000E06A01262A6906FA00F111432961154961
:103E300000EB800001EB8000211DFEF789FDE06AA8
:103E40002968C96A884202D90120EE6170BD00204C
:103E500070BD0000400000202E2E5C2E2E5C4672AD
:103E6000656552544F535C7372635C7461736B731A
:103E70002E6300004572726F723A25732C25640D13
:103E80000A000000740100202DE9F0410024002701
:103E90002B4D286B002805D14FF4FD6229A130A0DD
:103EA000FDF784F8FEF760FD286B401E2863286B41
:103EB000F0BBA868E0B3DFF8B88001261DE0D8F8B1
:103EC0000C00C46804F11800FEF728FC201DFEF762
:103ED00025FCE06A2A6906FA00F1114329612549A7
:103EE00000EB800001EB8000211DFEF731FDE06A50
:103EF0002968C96A884200D3EE61D8F8000000281A
:103F0000DDD10CB1FEF76CFAAC6944B1FFF740FEAD
:103F100000B1EE61641E002CF8D10020A861E869B0
:103F200030B10127144938070860BFF34F8F00E014
:103F300001E0BFF36F8FFEF753FD3846BDE8F08117
:103F4000400000202E2E5C2E2E5C46726565525479
:103F50004F535C7372635C7461736B732E63000008
:103F60004572726F723A25732C25640D0A000000A9
:103F70001C0400207401002004ED00E02DE9FC4742
:103F800006460A9D0F46904699462820FEF722FBDA
:103F900004463CB1CDE900544B46424639463046D2
:103FA000FEF714F82046BDE8FC8700001CB500248D
:103FB000FDF7A0FE0C48006860B10B481F21001DF2
:103FC000CDE9001000234FF4807208A10948FFF7E3
:103FD00093FD04462CB940F2331207A10DA0FCF763
:103FE000E5FF20461CBD00007C000020546D7220BF
:103FF00053766300412500082E2E5C2E2E5C4672FF
:10400000656552544F535C7372635C74696D65727D
:10401000732E63004572726F723A25732C25640DFE
:104020000A0000002DE9FF47DDF830A005460E46E6
:10403000904699460027002D05D14FF4D37215A163
:104040001BA0FCF7B3FF1E4C2068F8B10096CDF81A
:1040500004800295062E13DAFFF77EFD022807D0B2
:1040600000231A4669462068FFF7B4FB07460DE0B7
:104070000023524669462068FFF7ACFB074605E07F
:1040800000234A466946FFF771FC074604B03846EC
:10409000BDE8F0872E2E5C2E2E5C4672656552546C
:1040A0004F535C7372635C74696D6572732E630049
:1040B0004572726F723A25732C25640D0A00000058
:1040C0007C000020E440000800000020B800000050
:1040D000F00F00089C410008B8000020C8970000BD
:1040E00000100008007A030A000000000000000031
:1040F000010203040607080900000000010203048E
:104100000102030406070809000000000000000087
:10411000000000000000000000000000000000009F
:10412000000000000000000000000000000000008F
:10413000000000000000000000000000000000007F
:10414000000000000000000000000000000000006F
:10415000000000000000000000000000000000005F
:10416000000000000000000000000000000000004F
:104170000000000000000000AAAAAAAA0000000097
:10418000000000000000000000000000000000002F
:0C41900000000000000000000000000023
:040000050800018965
:00000001FF
